:020000040000FA
:100000000C9463000C948B000C948B000C948B006C
:100010000C948B000C948B000C948B000C948B0034
:100020000C948B000C948B000C948B000C948B0024
:100030000C948B000C948B000C948B000C948B0014
:100040000C940E0A0C948B000C947E0A0C94580AA3
:100050000C948B000C948B000C948B000C948B00F4
:100060000C94B00A0C948B000000000024002700C0
:100070002A0000000000250028002B0000000008D6
:10008000000201000003040700000000000000005F
:1000900000000000230026002900040404040404D6
:1000A0000404020202020202030303030303010227
:1000B00004081020408001020408102001020408F6
:1000C0001020140C7B1211241FBECFEFD8E0DEBF2E
:1000D000CDBF25E0AAE6B3E001C01D92AA32B20767
:1000E000E1F713E0A0E0B1E0EAEBFEE202C0059028
:1000F0000D92AA36B107D9F710E0C2E6D0E004C0ED
:100100002197FE010E944F15C136D107C9F70E9401
:100110009C0C0C9450170C940000CF92DF92EF923D
:10012000FF92CF93DF93B091F504A0E08111AB2F44
:100130008091F60490E0880F991FAC0140575F4F03
:10014000C090FB04D090FC04E090FD04F090FE040D
:1001500030E020E0FA01C591D491E881B90190E046
:1001600080E0EB23EA130AC02F5F3F4F6C157D053B
:100170008E059F0578F36FEF7FEFCB01DF91CF9175
:10018000FF90EF90DF90CF90089590E0FC01E4584D
:10019000FF4F2491FC01E255FF4F3491FC01E656DC
:1001A000FF4FE491EE23C9F0222339F0233001F10F
:1001B000A8F4213019F1223029F1F0E0EE0FFF1FF1
:1001C000EE58FF4FA591B4918FB7F894EC9161115F
:1001D00026C030953E233C938FBF08952730A9F069
:1001E0002830C9F0243049F7809180008F7D03C00A
:1001F000809180008F7780938000DFCF84B58F77E8
:1002000084BDDBCF84B58F7DFBCF8091B0008F772D
:100210008093B000D2CF8091B0008F7DF9CF3E2B7C
:10022000DACFCF93DF9390E0FC01E255FF4F2491AA
:1002300086569F4FFC0184918823C9F090E0880F77
:10024000991FFC01E859FF4FA591B491FC01EE58AC
:10025000FF4FC591D49161110DC09FB7F8948C9157
:10026000209582238C938881282328839FBFDF9148
:10027000CF910895623051F49FB7F8943C91822F4A
:10028000809583238C93E8812E2BEFCF8FB7F89442
:10029000EC912E2B2C938FBFEACF3FB7F89480912F
:1002A000410490914204A0914304B091440426B5C6
:1002B000A89B05C02F3F19F00196A11DB11D3FBF9E
:1002C000BA2FA92F982F8827BC01CD01620F711D6D
:1002D000811D911D42E0660F771F881F991F4A9567
:1002E000D1F708958F929F92AF92BF92CF92DF92F3
:1002F000EF92FF924B015C010E944D016B017C016A
:100300000E944D016C197D098E099F09683E73405A
:1003100081059105A8F321E0821A9108A108B1088E
:1003200088EEC80E83E0D81EE11CF11C81149104F4
:10033000A104B10429F7FF90EF90DF90CF90BF9018
:10034000AF909F908F9008952FB7F89460913D04DF
:1003500070913E0480913F04909140042FBF089516
:10036000CF92DF92EF92FF920F931F93CF93DF9381
:10037000CDB7DEB7C054D1400FB6F894DEBF0FBE84
:10038000CDBF0E94A4010091F7041091F8042091C0
:10039000F9043091FA046B017C01C01AD10AE20A17
:1003A000F30A97018601003D17402105310590F4BD
:1003B0008091FF04C05CDE4F0FB6F894DEBF0FBE25
:1003C000CDBFDF91CF911F910F91FF90EF90DF9004
:1003D000CF9008956093F7047093F8048093F90424
:1003E0009093FA041092F2041092F1041092F00427
:1003F0001092EF041092EE0462E08091F3040E94E8
:10040000110161E070E080E090E00E94720161E023
:100410008091F3040E94110160E08091F3040E9436
:10042000C5008091F4048551823020F58BE291E182
:100430000197F1F762E08091F3040E94110180912D
:10044000000590E08230910538F0880F991F880FE1
:10045000991F05970197F1F7F89480E00E948D00AD
:100460006F3F7F4F8F4F9F4F61F41092FF0478943E
:1004700080E0A0CF64E170E080E090E00E94720133
:10048000D9CF81E00E948D006F3F7F4F8F4F9F4FEC
:1004900061F38E010F5F1F4F6E012FEBC21A2EEF1B
:1004A000D20A780180E00E948D00F7016083718399
:1004B0008283938381E00E948D00F70164837583BA
:1004C00086839783F8E0EF0EF11CEC14FD0451F7DE
:1004D000789430E020E0F801C080D180E280F380A1
:1004E0004481558166817781FFEFCF16DF06EF06E5
:1004F000FF0631F04F3F8FEF58076807780719F470
:100500001092FF04B5CFF90183E0F595E7958A9540
:10051000E1F7E251FB4F8081880FC416D506E6064D
:10052000F70610F180832F5F3F4F085F1F4F28327F
:10053000310589F64091F2042091EE048091EF0498
:10054000280F3327331F8091F004280F311D80912D
:10055000F104820F932F911D99274817190681F6F0
:1005600081E08093FF0426CF8160DCCF0895089559
:10057000AF92BF92CF92DF92EF92FF920F931F93B1
:10058000CF93DF936C017B018B01040F151FEB01EF
:100590005E01AE18BF08C017D10759F06991D601A6
:1005A000ED91FC910190F081E02DC6010995892B18
:1005B00079F7C501DF91CF911F910F91FF90EF90D7
:1005C000DF90CF90BF90AF900895FC01538D448D84
:1005D000252F30E0842F90E0821B930B541710F0EE
:1005E000CF96089501970895FC01918D828D9817FB
:1005F00061F0A28DAE0FBF2FB11D5D968C91928DD3
:100600009F5F9F73928F90E008958FEF9FEF089503
:10061000FC01918D828D981731F0828DE80FF11DCC
:10062000858D90E008958FEF9FEF0895FC01918DE7
:10063000228D892F90E0805C9F4F821B91098F73E0
:100640009927089585E494E00E94160321E0892B00
:1006500009F420E0822F089580E090E0892B29F0B2
:100660000E94220381110C9400000895FC01A48DC6
:10067000A80FB92FB11DA35ABF4F2C91848D90E0C4
:1006800001968F739927848FA689B7892C93A089A7
:10069000B1898C91837080648C93938D848D981331
:1006A00006C00288F389E02D80818F7D80830895C4
:1006B000EF92FF920F931F93CF93DF93EC0181E0B2
:1006C000888F9B8D8C8D98131AC0E889F989808159
:1006D00085FF15C09FB7F894EE89FF896083E8898C
:1006E000F98980818370806480839FBF81E090E07E
:1006F000DF91CF911F910F91FF90EF900895F62E0B
:100700000B8D10E00F5F1F4F0F731127E02E8C8DA4
:100710008E110CC00FB607FCFACFE889F9898081E9
:1007200085FFF5CFCE010E943603F1CFEB8DEC0FA4
:10073000FD2FF11DE35AFF4FF0829FB7F8940B8F06
:10074000EA89FB8980818062CFCFCF93DF93EC0170
:10075000888D8823B9F0AA89BB89E889F9898C91A9
:1007600085FD03C0808186FD0DC00FB607FCF7CF65
:100770008C9185FFF2CF808185FFEDCFCE010E9465
:100780003603E9CFDF91CF9108952091D603260F4C
:100790003327331F21323105ECF42091FA03FC0199
:1007A00090E080E0243069F082E00895A091D603C3
:1007B0002191AC014A545C4FA40FB52FB11D2C936D
:1007C0000196861798F38091D603680F6093D6033D
:1007D00080E0089581E008951092FA0381E080930B
:1007E000FC031092FB0361E082E10E94C50061E01E
:1007F00083E10E94C500E9EBF0E080818E7F808379
:1008000080818D7F808388E48093B80085E4809325
:10081000BC000895CF93DF9391E09093B5038823B4
:10082000B9F0C091B800D091BA008091BC008A7B29
:100830008093BC0060E082E10E94C50060E083E13B
:100840000E94C5000E94EC03D093BA00C093B80088
:10085000DF91CF9108950895E091270480912604B7
:10086000E81730F4F0E0E057FC4F808190E0089505
:100870008FEF9FEF089590912704809126042FEF2A
:100880003FEF981748F4E92FF0E0E057FC4F208144
:1008900030E09F5F90932704C9010895809126045A
:1008A00090912704891B990B0895CF92DF92EF92C4
:1008B000FF920F931F93CF93DF937C01CB018A01AB
:1008C00020918F03222389F0EB016B01C40ED51E0A
:1008D000CC15DD0569F06991D701ED91FC9101908E
:1008E000F081E02DC7010995F3CF642F0E94C50365
:1008F000C801DF91CF911F910F91FF90EF90DF9092
:10090000CF900895CF93DF931F92CDB7DEB7698361
:1009100020918F032223F9F020912404203258F0F3
:1009200021E030E0FC013383228390E080E00F90EF
:10093000DF91CF91089580912504E82FF0E0E159EF
:10094000FC4F998190838F5F8093250480932404CA
:1009500081E090E0ECCF61E0CE0101960E94C503FA
:10096000F7CFCF92DF92EF92FF920F931F93CF9327
:10097000DF93FC01C48121E020938F03C0936E03B9
:1009800010922504109224048485682B82EE94E052
:100990000E948204D0912404D13208F092C00E94B7
:1009A0004D016B017C018091FA03811165C082E0E9
:1009B0008093FA0381E08093FC038FEF8093F90327
:1009C00010921E04D0931D04AFE6B3E0EDEFF3E008
:1009D00080E0D81385C010921F0480911F04CC0FB3
:1009E000C82BC0931F048091FB03813009F07CC0A9
:1009F0001092FB030E944D016B017C0180911F044A
:100A00008093BB008091B1039091B203A091B30396
:100A1000B091B403892B8A2B8B2B99F00E944D0146
:100A20000091B1031091B2032091B3033091B4034C
:100A30006C197D098E099F090617170728073907C2
:100A4000E0F18091BC0083FDD9CF85EC8093BC00A0
:100A50000E944D016B017C018091FA03823009F400
:100A600045C08091F9038F3F61F18091F903803295
:100A700041F18091F90325C08091B1039091B203B7
:100A8000A091B303B091B403892B8A2B8B2B09F46B
:100A90008ACF0E944D010091B1031091B2032091C1
:100AA000B3033091B4036C197D098E099F090617B1
:100AB00017072807390708F076CF8091B0030E9406
:100AC0000A04109225041092240410928F03DF91DF
:100AD000CF911F910F91FF90EF90DF90CF900895ED
:100AE0009D9191938F5F75CF85EEB0CF8091B103CB
:100AF0009091B203A091B303B091B403892B8A2BD8
:100B00008B2B09F4A9CF0E944D010091B1031091E4
:100B1000B2032091B3033091B4036C197D098E099F
:100B20009F09061717072807390708F095CFC5CF83
:100B3000089590E080E00895CF92DF92EF92FF92C7
:100B4000CF930E94B001882349F08091F4048B3048
:100B500028F08D3040F085518230D0F160E070E0B7
:100B600080EC9FE71CC06091EF0470E090E080E0B3
:100B70000E9492122DEC3CEC4CEC5DE30E94F112D1
:100B80006B017C016091EE0470E090E080E00E94D7
:100B900092129B01AC01C701B6010E94E71360935A
:100BA00030047093310480933204909333040E9494
:100BB000B001882341F08091F4048C3009F469C0BD
:100BC000C8F48B3081F160E070E080EC9FE753C0A7
:100BD0006091EE047091EF0476276727762790E006
:100BE00080E00E9490122DEC3CEC4CEC5DE30E9406
:100BF000F112D5CF8551823030F7C091F0046C2FBF
:100C000070E0762F662766277F778091F104682B46
:100C100090E080E00E9490122DEC3CEC4CEC5DE307
:100C20000E94F11252C06091F00470E090E080E008
:100C30000E9490126B017C01C091F104C7FF0AC0B1
:100C4000AC019B0160E070E080E89FEB0E94E6133E
:100C50006B017C01CF706C2F70E090E080E00E940F
:100C600092122DEC3CEC4CEC5DE30E94F112A701DA
:100C700096010E94E71360932C0470932D048093D7
:100C80002E0490932F04CF91FF90EF90DF90CF90A0
:100C90000895C091F0046C2F70E090E080E00E9415
:100CA00090126B017C016091F1046F7070E090E034
:100CB00080E00E9492122DEC3CEC4CEC5DE30E9433
:100CC000F112A70196010E94E713C7FFD4CF9058F5
:100CD000D2CF0F931F93CF938C01C62F0E94B104E4
:100CE0006C2F6460C8010E94B1046C2F6B7FC80137
:100CF0000E94B10483EC90E00197F1F7CF911F912E
:100D00000F9108950F931F93CF93DF938C01D62FEC
:100D1000C42F607F642B0E94690680E1D89FB001D8
:100D200011246C2BC801DF91CF911F910F910C946E
:100D30006906CF93DF93CDB7DEB728970FB6F89447
:100D4000DEBF0FBECDBF98E0E8E9F1E0DE0111960D
:100D500001900D929A95E1F790910905961708F484
:100D60006FEF262F30E0220F331F41E050E04C0F91
:100D70005D1F240F351FF9016081680F606840E036
:100D800081E095E028960FB6F894DEBF0FBECDBF88
:100D9000DF91CF910C94820641E00E94820681E0AF
:100DA00090E008950F931F93CF93DF938B0198E00A
:100DB000899FB0011124606440E081E095E00E94C9
:100DC0008206E801085F1F4F699181E095E00E946B
:100DD000CC06C017D107C1F7DF91CF911F910F91BA
:100DE000089540E061E081E095E00E9482068BE397
:100DF0009FE10197F1F780910A05882321F060E0D7
:100E000080E00C9499060895FB0101900020E9F719
:100E10003197AF01461B570BDC01ED91FC9102802D
:100E2000F381E02D09948F929F92AF92BF92EF923F
:100E3000FF920F931F93CF93DF93CDB7DEB7A197A8
:100E40000FB6F894DEBF0FBECDBF7C01FA01CB0117
:100E500019A2223008F42AE08E010F5D1F4F822E66
:100E6000912CB12CA12CBF01A50194010E94191550
:100E7000F901CA016A300CF5605DD8016E938D01ED
:100E8000232B242B252B79F790E080E0109721F07D
:100E9000BD01C7010E940407A1960FB6F894DEBFFA
:100EA0000FBECDBFDF91CF911F910F91FF90EF90BB
:100EB000BF90AF909F908F900895695CDECFCF92E6
:100EC000DF92EF92FF926B017C0141E06DE281E0E5
:100ED00095E00E94820644275527BA014C195D0906
:100EE0006E097F092AE081E095E00E9413070196D0
:100EF000FF90EF90DF90CF900895AC01990F660BB3
:100F0000770B77FF04C0CB01BA010C945F072AE08E
:100F100081E095E00C9413070C94040760E080E0F6
:100F20000E94990660E081E095E00E94CC0662E0B4
:100F300081E095E00E94CC0660ED71E081E095E0F3
:100F40000E948C0760912C0470912D0480912E04D6
:100F500090912F040E94C514CB010E947D0763E08D
:100F600081E095E00E94CC066DED71E081E095E0B6
:100F70000E948C0760E087E00E94990661E081E0B2
:100F800095E00E94CC0662E081E095E00E94CC06EC
:100F900060ED71E081E095E00E948C076091300483
:100FA0007091310480913204909133040E94C514F1
:100FB000CB010E947D076EE073E081E095E00E9426
:100FC0008C076091300470913104809132049091CB
:100FD00033040E94C5146436710534F46DED71E07C
:100FE00081E095E00C948C0708950F931F93CF93A5
:100FF000DF93EC0188819981009759F02A813B8128
:101000002617370730F081E0DF91CF911F910F91C4
:1010100008958B016F5F7F4F0E947A16009759F0F9
:10102000998388831B830A832C813D81232B59F765
:10103000FC011082E8CF80E0E7CFCF93DF93EC0193
:1010400088819981009711F00E94F1151982188208
:101050001D821C821B821A82DF91CF910895EF922C
:10106000FF920F931F93CF93DF93EC017B018A01D3
:10107000BA010E94F50781110BC0CE010E941D0824
:10108000CE01DF91CF911F910F91FF90EF900895C6
:101090001D830C83B701888199810E944917F0CF85
:1010A000FB0101900020E9F73197AF01461B570B78
:1010B0000C942F08CF93DF93EC01FB018617970761
:1010C00049F0608171816115710541F0448155815C
:1010D0000E942F08CE01DF91CF9108950E941D0834
:1010E000F9CFFC01118210821382128215821482C0
:1010F000FB0101900020E9F73197AF01461B570B28
:101100000C942F08FC0180819181009711F00C94C0
:10111000F115089585ED8093BC008091B103909105
:10112000B203A091B303B091B4030796A11DB11D02
:1011300023E0B695A795979587952A95D1F72091A5
:10114000BC0024FD03C01092FA0308954091B1033E
:101150005091B2036091B3037091B403452B462BB9
:10116000472B69F30097A105B10541F02AE22A95C2
:10117000F1F700C00197A109B109E1CF8091B00357
:101180000C940A04AF92BF92CF92DF92EF92FF923B
:101190000F931F93CF93DF93CDB7DEB72C970FB686
:1011A000F894DEBF0FBECDBF0E94A40100916A0378
:1011B00010916B0320916C0330916D03601B710BD8
:1011C000820B930B6C3271408105910508F415C1B7
:1011D00062ED71E0CE0101960E947108E0900E056B
:1011E000F0900F05E114F10409F4BBC00091120561
:1011F0001091130501151105B9F08D819E81080F1D
:10120000191FB801CE0101960E94F507882309F441
:10121000A8C029813A818D819E81B701820F931FD9
:101220000E9449171E830D830D811E810F5F1F4F82
:10123000B801CE0101960E94F507811197C0CE0139
:1012400001960E941D0818861F821A8619861C8620
:101250001B86BE016F5F7F4FCE0107960E945A0822
:10126000CE0101960E948208EB84FC8461E080E05C
:101270000E9499060091280410912904C0909001C1
:10128000D0909101C00ED11EC016D10628F09C2D21
:101290008D2D6801092F182F1A8219821C821B823A
:1012A0001E821D8250E040E062E572E0CE010196B0
:1012B0000E942F08AB84BC84CA14DB04E0F40A1536
:1012C0001B0508F45801EF81F885EA0DFB1D10811C
:1012D00010826F8178856C0D7D1DCE0101966115A0
:1012E000710509F450C00E9450088F819885A80E9E
:1012F000B91EF50110834D815E8169817A8181E09B
:1013000095E00E94B802CE0101960E948208809169
:10131000280490912904B7010E9405158C0190932F
:10132000290480932804209124053091250580917B
:1013300012059091130528173907C1F580912005F2
:101340009091210560910E0570910F05009709F1AC
:1013500061157105D9F4232BC9F1FC01808190E05E
:1013600023C0CE0101960E941D085ECF29813A81DB
:101370008D819E816DED71E0820F931F0E94491750
:101380001E830D8360CF0E941D08AFCF0E944017BF
:101390000BC061157105D1F0232BC1F0FB018081D9
:1013A00090E0919581959109892B81F0F1E0EF1AF8
:1013B000F1080E151F0554F010922904109228040C
:1013C00060E275E08EE095E00E945A088091280462
:1013D00090912904019690932904809328040E94F7
:1013E000A40160936A0370936B0380936C039093E2
:1013F0006D03CE0107960E9482082C960FB6F894D2
:10140000DEBF0FBECDBFDF91CF911F910F91FF9037
:10141000EF90DF90CF90BF90AF9008951F920F9202
:101420000FB60F9211242F933F938F939F93AF93F7
:10143000BF9380913D0490913E04A0913F04B091F0
:10144000400430913C0423E0230F2D3758F50196DA
:10145000A11DB11D20933C0480933D0490933E0454
:10146000A0933F04B09340048091410490914204C2
:10147000A0914304B09144040196A11DB11D809335
:10148000410490934204A0934304B0934404BF9159
:10149000AF919F918F913F912F910F900FBE0F9021
:1014A0001F90189526E8230F0296A11DB11DD2CFDB
:1014B0001F920F920FB60F9211242F933F934F93C9
:1014C0005F936F937F938F939F93AF93BF93EF93AC
:1014D000FF9385E494E00E943603FF91EF91BF9162
:1014E000AF919F918F917F916F915F914F913F91BC
:1014F0002F910F900FBE0F901F9018951F920F9273
:101500000FB60F9211242F938F939F93EF93FF9316
:10151000E0915504F09156048081E0915B04F091D4
:101520005C0482FD1BC0908180915E048F5F8F738D
:1015300020915F04821741F0E0915E04F0E0EB5BE4
:10154000FB4F958F80935E04FF91EF919F918F9158
:101550002F910F900FBE0F901F9018958081F4CFA0
:101560001F920F920FB60F9211242F933F934F9318
:101570005F936F937F938F939F93AF93BF93EF93FB
:10158000FF938091B900887F803609F44AC0F0F556
:10159000883209F4A7C018F5803109F49BC0B8F46B
:1015A000882309F4F9C0883009F494C0FF91EF91C1
:1015B000BF91AF919F918F917F916F915F914F916B
:1015C0003F912F910F900FBE0F901F90189588316B
:1015D00009F488C0803251F78093F90314C0803435
:1015E00009F49DC040F48033B9F38833F9F6809351
:1015F000F90385ECB0C0803509F485C0883509F45D
:1016000096C0883499F60E948A08D0CF883909F4A8
:101610008CC038F5883729F050F4883611F08037BF
:1016200029F683E08093FA031092F80357C08838B4
:1016300009F47BC0803919F0803809F0B7CF809168
:10164000F803803208F071C0E091F80381E08E0F5A
:101650008093F8038091BB00F0E0E852FC4F808358
:101660003DC0803B39F0E0F4803A09F479C0883A13
:1016700009F09CCF84E08093FA031092D703109274
:10168000D603E0912204F091230409958091D603BA
:1016900081110FC081E08093D6031092B60309C078
:1016A000803C09F4A6CF883C09F4A3CF883B09F01D
:1016B0007DCFE091D70381E08E0F8093D703F0E0D8
:1016C000EA54FC4F80818093BB009091D7038091B6
:1016D000D60329C080911F048093BB0085EC8093C2
:1016E000BC0064CF90911E0480911D04981758F59A
:1016F000E0911E0481E08E0F80931E04F0E0E35021
:10170000FC4F8081E9CFE0911E0481E08E0F809331
:101710001E048091BB00F0E0E350FC4F8083909169
:101720001E0480911D049817C8F285E8D8CFE09177
:101730001E0481E08E0F80931E048091BB00F0E0B8
:10174000E350FC4F80838091FC0381115CCF81E0EA
:101750008093FB0384EA8093BC001092FA0326CFA7
:1017600085EC8093BC001092FA038091F8038032DC
:1017700030F4E091F803F0E0E852FC4F1082609101
:10178000F80370E0E0912004F091210488ED93E0EB
:1017900009951092F8030ACF1092F90334CFCF9233
:1017A000DF92EF92FF920F931F93E82FF92F05C05E
:1017B000015011092109310961F190819623941793
:1017C000B9F305C0015011092109310911F19081C6
:1017D00096239413F7CFC12CD12CE12CF12C0AC005
:1017E0008FEFC81AD80AE80AF80A0C151D052E054D
:1017F0003F0579F080818623841791F36C2D7D2D30
:101800008E2D9F2D1F910F91FF90EF90DF90CF9025
:10181000089560E070E080E090E01F910F91FF90EC
:10182000EF90DF90CF900895E5E4F4E01382128208
:1018300088EE93E0A0E0B0E084839583A683B7832D
:1018400024EA31E03183208325EC30E0358724879A
:1018500024EC30E03787268720EC30E0318B208B7A
:1018600021EC30E0338B228B22EC30E0358B248B63
:1018700026EC30E0378B268B118E128E138E148E51
:10188000E2EEF4E01382128284839583A683B78309
:1018900086EB91E0918380836FED71E080E295E0CB
:1018A0000E94710862E572E08AE195E00E94710889
:1018B00062E572E084E195E00E947108EEE0F5E0F7
:1018C00011821082138212821582148260E275E006
:1018D000CF010E945A08E1E0F5E01382128288EC01
:1018E00091E091838083118687E2848380E18287FF
:1018F00082E083871486AEEEB4E08EE015968C937A
:1019000015978BE016968C931697ECEBF0E0E4912C
:101910001796EC931797E8EAF0E0E4911896EC93A9
:10192000189740E85EE360E070E01D964D935D938C
:101930006D937C9350970895789484B5826084BDAC
:1019400084B5816084BD85B5826085BD85B58160C3
:1019500085BD80916E00816080936E001092810041
:1019600080918100826080938100809181008160FC
:1019700080938100809180008160809380008091BD
:10198000B10084608093B1008091B0008160809349
:10199000B00080917A00846080937A0080917A0010
:1019A000826080937A0080917A00816080937A00CF
:1019B00080917A00806880937A001092C100E09153
:1019C0005504F091560482E08083E0915104F09137
:1019D00052041082E0915304F09154048FEC808300
:1019E00010925D04E0915904F0915A0486E08083DE
:1019F000E0915704F0915804808180618083E091E8
:101A00005704F0915804808188608083E0915704E6
:101A1000F0915804808180688083E0915704F091B0
:101A2000580480818F7D80836AEF71E085E494E0C3
:101A30000E948C070FB6F894A89580916000886189
:101A400080936000109260000FBE109227041092E5
:101A5000260410922504109224040E94EC0386EBC5
:101A600092E0909323048093220487EB92E090937A
:101A70002104809320041092060580910C05823089
:101A800018F098E0909306058093090562E370E0F2
:101A900080E090E00E94720160910D0581E095E088
:101AA0000E94B10468EE73E080E090E00E94720151
:101AB00060E381E095E00E946906CBE4D6E4CE01C4
:101AC0000197F1F760E381E095E00E9469062197B4
:101AD000F1F760E381E095E00E94690683E592E01A
:101AE0000197F1F760E281E095E00E94690660915C
:101AF0000605606240E081E095E00E94820684E095
:101B00008093070540E06CE081E095E00E9482064A
:101B10000E94F10682E08093080540E066E081E0E3
:101B200095E00E94820640E062E081E095E00E943C
:101B300082068BE39FE10197F1F70E94F10661E0D5
:101B400080E00E94990665E072E081E095E00E94E5
:101B50008C07C8E0C0930D0560E081E095E00E942D
:101B6000B10460E471E080E00E94D20668E371E0B5
:101B700081E00E94D20660E371E082E00E94D2061A
:101B800068E271E083E00E94D20660E271E084E0E6
:101B90000E94D20668E871E085E00E94D20660E00B
:101BA00085E00E94990660E081E095E00E94CC0605
:101BB00061E081E095E00E94CC0662E081E095E082
:101BC0000E94CC066DED71E081E095E00E948C07EB
:101BD00063E081E095E00E94CC0664E081E095E05E
:101BE0000E94CC0661E080E00E94990661E172E00B
:101BF00081E095E00E948C0765E081E095E00E941D
:101C0000CC0664ED71E081E095E00E948C0761E014
:101C10008DE00E94110161E088E00E94110161E005
:101C200087E00E94110161E086E00E94110161E0FD
:101C300084E00E94110160E083E00E94110161E0F4
:101C400080E00E9499066BE172E081E095E00E94DD
:101C50008C0765E081E095E00E94CC0664ED71E0C0
:101C600081E095E00E948C0762E08091F3040E947D
:101C700011010E94A401605D774081099109609380
:101C8000F7047093F8048093F9049093FA0487E3BF
:101C90008093000561E080E00E94990669E272E0AD
:101CA00081E095E00E948C0765E081E095E00E946C
:101CB000CC0664ED71E081E095E00E948C0760ED58
:101CC00077E080E090E00E9472010E949C0561E054
:101CD00080E00E94990669E372E081E095E00E944D
:101CE0008C0764ED71E081E095E00E948C0768E864
:101CF00071E080E00E94D20660E081E095E00E9401
:101D0000CC060E94F10610920D0560E081E095E09E
:101D10000E94B1046AE070E080E090E00E947201ED
:101D2000C0930D0560E081E095E00E94B10468E198
:101D300071E080E00E94D20660E171E081E00E94E3
:101D4000D20668E071E082E00E94D20660E071E0B5
:101D500083E00E94D2060E948E070E94A4010E9486
:101D60009012609338047093390480933A049093EE
:101D70003B0423E2222E312CC0E0D0E060E084E07E
:101D80000E94C50083E090E00197F1F761E084E0F4
:101D90000E94C500C1010197F1F760E084E00E9454
:101DA000C500E1EBF0E06491EDE9F0E08491E82F0B
:101DB000F0E0EE0FFF1FE057FF4F8591949100E494
:101DC00012E42FE030E0462F0E94CF0B6115710521
:101DD0008105910529F06F5F7F4F8F4F9F4F9F7057
:101DE0000E94921226E933E44BE05DE30E94F11277
:101DF00020E030E040E05FE30E94F1126B017C01E3
:101E00000E94A4010E94901220913804309139045C
:101E100040913A0450913B040E94E61320E030E0E8
:101E20004AE754E40E94FB1487FD3BC0A7019601DA
:101E3000C701B6010E94001564E472E081111BC065
:101E400046015701E894B7F82FEF3FEF4FE75FE700
:101E5000C501B4010E9400158111CDC12FEF3FEFE4
:101E60004FE75FE7C501B4010E948B1218160CF012
:101E7000C2C168E472E085E494E00E94040760E572
:101E800072E085E494E00E9404070E94A4010E948D
:101E90009012609338047093390480933A049093BD
:101EA0003B0420E030E040E251E4C701B6010E946B
:101EB0008B1261E018160CF460E08DE00E94C50002
:101EC0000E949C058090300490903104A0903204D0
:101ED000B090330420E030E040EA52E4C501B401A0
:101EE0000E94FB14C0902C04D0902D04E0902E048E
:101EF000F0902F0487FD32C220E030E040E050EC4B
:101F0000C701B6010E948B1218160CF4F5C120E02F
:101F100030E040EA52E4C501B4010E94E61320E03B
:101F200030E040EA51E40E9453146B017C010E94AE
:101F3000A40128EE33E040E050E00E941915643F10
:101F400071408105910508F4D4C160E871E084E036
:101F50000E94D20663E572E080E295E00E9450089C
:101F600060E08EE00E94990620E030EC49E754E4FE
:101F7000C501B4010E948B12181634F06DED71E0AA
:101F800081E095E00E948C0764E081E095E00E948A
:101F9000CC066AED71E081E095E00E948C0761E07B
:101FA0008CE00E94990620E030E04AE754ECC7013B
:101FB000B6010E948B126BE073E0882329F120E0C8
:101FC00030E040E151E4C701B6010E948B126CED94
:101FD00071E0181664F420E030E046EC52E4C701EA
:101FE000B6010E948B12181634F06DED71E081E09D
:101FF00095E00E948C07C701B6010E94C514CB0171
:102000000E947D0760E173E081E095E00E948C070B
:102010000E948E070E94C2080E94A40128E93AE3A8
:1020200040E050E00E9419150E9490126B017C0163
:1020300020E030E64AEE55E40E948B1218160CF4AC
:10204000D3C160E086E00E94C50060E087E00E94A6
:10205000C50061E088E00E94C5000E94A401C09014
:102060003404D0903504E0903604F09037046C19B5
:102070007D098E099F09683E73408105910508F42A
:102080002FC20E94A401609334047093350480939E
:102090003604909337048090300490903104A090DF
:1020A0003204B0903304A5019401C501B4010E942B
:1020B0000015811122C0C0902C04D0902D04E09016
:1020C0002E04F0902F04A7019601C701B6010E94CB
:1020D0000015811112C020E030E0A901C501B40152
:1020E0000E948B128111CEC120E030E0A901C7010E
:1020F000B6010E948B128111C5C180912A04909172
:102100002B04019690932B0480932A0480912A0437
:1021100090912B0405970CF4E3C165E173E08AE12B
:1021200095E00E94500860E272E084E195E00E9430
:1021300050080E94F10660E080E00E94990680E16C
:1021400090E090939101809390016DE573E081E0C0
:1021500095E00E948C0740911805509119056091F7
:1021600014057091150581E095E00E94B8020E9467
:10217000A4016B017C0110922904109228046AE1E9
:1021800075E080E295E00E945A086AE175E08EE011
:1021900095E00E945A08C8E1DCEF0E94A4016C1986
:1021A0007D098E099F09613375478105910508F006
:1021B00074C160E08EE00E9499060E94A401CB01E8
:1021C0008C199D09BE010E940515CB014E96AC01EC
:1021D000092E000C660B770B97FF59C1CB01BA0192
:1021E0000E945F076CED71E081E095E00E948C0732
:1021F0000E94C208D2CF2FEF3FEF4FE75FE4C70145
:10220000B6010E94FB1418161CF46CE472E033CE85
:102210002FEF3FEF4FE75FECC701B6010E948B1233
:1022200087FDF3CF20E030E0A901C701B6010E948D
:102230008B1287FF5BC06DE285E494E00E94580337
:10224000C701B60190582AE037ED43EA5BE30E94EC
:10225000E7132B013C010E94CC144B015C010E944E
:1022600090129B01AC01C301B2010E94E6132B0145
:102270003C012AE0B501A40185E494E00E94130723
:102280006EE285E494E00E94580320E030E040E2F2
:1022900051E4C301B2010E94F1122B013C010E94E2
:1022A000CC144B01B12CA12C2AE0B501A40185E48A
:1022B00094E00E941307C501B4010E9490129B0193
:1022C000AC01C301B2010E94E61320E030E040E21D
:1022D00051E40E94F1120E94CC14AB0170E060E066
:1022E0002AE085E494E00E941307C9CDC701B60136
:1022F000AACF68E771E02BCE20E030E040EF51E458
:10230000C701B6010E948B12181644F120E030E09C
:1023100040EA52E4C501B4010E94E61320E030E037
:1023200040EA51E40E9453146B017C010E94A40115
:1023300028EE33E040E050E00E941915643F714000
:102340008105910540F060E771E084E00E94D206CB
:1023500063E772E001CE68E671E0F7CF20E030E09D
:1023600040EA51E4C701B6010E948B1287FF12C0F8
:1023700060E671E084E00E94D20663E972E080E2E8
:1023800095E00E945008C12CD12C8AE7E82E84ECFD
:10239000F82EE6CD20E030E040ED51E4C701B60173
:1023A0000E94FB141816C4F40E94A40128EE33E026
:1023B00040E050E00E941915643F7140810591058D
:1023C00040F068E571E084E00E94D2066FEA72E0B6
:1023D000D6CF60E571E0F7CF68E471E084E00E9459
:1023E000D20667ED72E0CBCF20E030E04AEF55E453
:1023F000C701B6010E948B12181654F060E086E007
:102400000E94C50061E087E00E94C50060E022CE26
:1024100020E030ED44E056E4C701B6010E948B1283
:10242000181634F060E086E00E94C50060E0EBCF53
:1024300020E030EA4CE056E4C701B6010E948B125E
:102440001816E4F620E030E744E156E4C701B6018F
:102450000E948B12181634F720E030E44CE156E469
:10246000C701B6010E948B12181644F620E030E135
:1024700044E256E4C701B6010E948B12181694F686
:1024800061E0D1CF10922B0410922A043FCE2AE0B3
:1024900081E095E00E941307A5CE68E871E087E02F
:1024A0000E94D2060E94F10660E080E00E94990638
:1024B00061E673E081E095E00E948C0767E081E0CF
:1024C00095E00E94CC0688E199E00FB6F894A895B3
:1024D000809360000FBE909360000E94F106FFCFD2
:1024E000209709F44BCC0E942203882309F446CCA0
:1024F0000E94000043CC8EE095E00E94820884E1B7
:1025000095E00E9482088AE195E00E94820880E2BC
:1025100095E00C9482080E94CD1208F481E00895A1
:10252000E89409C097FB3EF490958095709561956D
:102530007F4F8F4F9F4F9923A9F0F92F96E9BB2723
:102540009395F695879577956795B795F111F8CF9F
:10255000FAF4BB0F11F460FF1BC06F5F7F4F8F4F0A
:102560009F4F16C0882311F096E911C0772321F000
:102570009EE8872F762F05C0662371F096E8862F98
:1025800070E060E02AF09A95660F771F881FDAF7EF
:10259000880F9695879597F90895990F0008550F1C
:1025A000AA0BE0E8FEEF16161706E807F907C0F0D9
:1025B00012161306E407F50798F0621B730B840BE1
:1025C000950B39F40A2661F0232B242B252B21F4BB
:1025D00008950A2609F4A140A6958FEF811D811D5B
:1025E00008950E9404130C9475130E94671338F029
:1025F0000E946E1320F0952311F00C945E130C943E
:10260000641311240C94A9130E94861370F3959FF0
:10261000C1F3950F50E0551F629FF001729FBB27D9
:10262000F00DB11D639FAA27F00DB11DAA1F649F75
:102630006627B00DA11D661F829F2227B00DA11D28
:10264000621F739FB00DA11D621F839FA00D611DAE
:10265000221F749F3327A00D611D231F849F600DCF
:10266000211D822F762F6A2F11249F5750409AF0F8
:10267000F1F088234AF0EE0FFF1FBB1F661F771F84
:10268000881F91505040A9F79E3F510580F00C944F
:102690005E130C94A9135F3FE4F3983ED4F3869540
:1026A00077956795B795F795E7959F5FC1F7FE2BEF
:1026B000880F911D9695879597F9089597F99F67CB
:1026C00080E870E060E008959FEF80EC08950024BA
:1026D0000A941616170618060906089500240A9487
:1026E00012161306140605060895092E0394000C0D
:1026F00011F4882352F0BB0F40F4BF2B11F460FF9C
:1027000004C06F5F7F4F8F4F9F4F089557FD9058C4
:10271000440F551F59F05F3F71F04795880F97FBA5
:10272000991F61F09F3F79F087950895121613065F
:102730001406551FF2CF4695F1DF08C0161617068E
:102740001806991FF1CF86957105610508940895C3
:10275000E894BB2766277727CB0197F908952F9236
:102760003F924F925F926F927F928F929F92AF9221
:10277000BF92CF92DF92EF92FF920F931F93CF936E
:10278000DF93CDB7DEB7CA1BDB0B0FB6F894DEBF05
:102790000FBECDBF09942A88398848885F846E842B
:1027A0007D848C849B84AA84B984C884DF80EE8075
:1027B000FD800C811B81AA81B981CE0FD11D0FB67E
:1027C000F894DEBF0FBECDBFED0108955058BB2772
:1027D000AA270E94FE130C9475130E94671338F009
:1027E0000E946E1320F039F49F3F19F426F40C94E4
:1027F00064130EF4E095E7FB0C945E13E92F0E943E
:10280000861358F3BA17620773078407950720F0F9
:1028100079F4A6F50C94A8130EF4E0950B2EBA2FBC
:10282000A02D0B01B90190010C01CA01A0011124D6
:10283000FF27591B99F0593F50F4503E68F11A1682
:10284000F040A22F232F342F4427585FF3CF469513
:1028500037952795A795F0405395C9F77EF41F1635
:10286000BA0B620B730B840BBAF09150A1F0FF0FFF
:10287000BB1F661F771F881FC2F70EC0BA0F621FEB
:10288000731F841F48F4879577956795B795F795DB
:102890009E3F08F0B0CF9395880F08F09927EE0F70
:1028A0009795879508950E9467140C9475130E945C
:1028B0006E1358F00E94671340F029F45F3F29F02F
:1028C0000C945E1351110C94A9130C9464130E9480
:1028D000861368F39923B1F3552391F3951B550B98
:1028E000BB27AA2762177307840738F09F5F5F4FE3
:1028F000220F331F441FAA1FA9F335D00E2E3AF022
:10290000E0E832D091505040E695001CCAF72BD039
:10291000FE2F29D0660F771F881FBB1F261737078A
:102920004807AB07B0E809F0BB0B802DBF01FF27BC
:1029300093585F4F3AF09E3F510578F00C945E1328
:102940000C94A9135F3FE4F3983ED4F386957795F2
:102950006795B795F7959F5FC9F7880F911D969575
:10296000879597F90895E1E0660F771F881FBB1FD1
:10297000621773078407BA0720F0621B730B840B7E
:10298000BA0BEE1F88F7E09508950E94CC14689466
:10299000B1110C94A91308950E948E1388F09F57CB
:1029A00098F0B92F9927B751B0F0E1F0660F771F73
:1029B000881F991F1AF0BA95C9F714C0B13091F069
:1029C0000E94A813B1E008950C94A813672F782FE4
:1029D0008827B85F39F0B93FCCF38695779567952E
:1029E000B395D9F73EF490958095709561957F4F9A
:1029F0008F4F9F4F08950E94CD1208F48FEF0895D6
:102A00000E94CD12880B990B089597FB072E16F4A0
:102A1000009407D077FD09D00E943B1507FC05D034
:102A20003EF4909581959F4F0895709561957F4FE5
:102A30000895A1E21A2EAA1BBB1BFD010DC0AA1FFF
:102A4000BB1FEE1FFF1FA217B307E407F50720F017
:102A5000A21BB30BE40BF50B661F771F881F991F92
:102A60001A9469F760957095809590959B01AC01DB
:102A7000BD01CF010895AA1BBB1B51E107C0AA1FCE
:102A8000BB1FA617B70710F0A61BB70B881F991F0F
:102A90005A95A9F780959095BC01CD010895EE0F48
:102AA000FF1F0590F491E02D09940F931F93CF938E
:102AB000DF938230910510F482E090E0E0912805E8
:102AC000F091290530E020E0B0E0A0E0309799F4E3
:102AD0002115310509F44AC0281B390B2430310572
:102AE000D8F58A819B816115710589F1FB0193837A
:102AF0008283FE0111C040815181028113814817F8
:102B00005907E0F04817590799F4109761F01296A9
:102B10000C93129713961C933296CF01DF91CF91AD
:102B20001F910F9108950093280510932905F4CF64
:102B30002115310551F04217530738F0A901DB0187
:102B40009A01BD01DF01F801C1CFEF01F9CF9093E8
:102B5000290580932805CDCFFE01E20FF31F819355
:102B600091932250310939832883D7CF20912605AC
:102B700030912705232B41F4209194013091950148
:102B800030932705209326052091920130919301DF
:102B90002115310541F42DB73EB740919601509172
:102BA0009701241B350BE0912605F0912705E217CC
:102BB000F307A0F42E1B3F0B2817390778F0AC0160
:102BC0004E5F5F4F2417350748F04E0F5F1F50933D
:102BD000270540932605819391939FCFF0E0E0E095
:102BE0009CCFCF93DF930097E9F0FC0132971382DB
:102BF0001282A0912805B0912905ED0130E020E076
:102C00001097A1F420813181820F931F2091260516
:102C1000309127052817390709F061C0F09327057F
:102C2000E0932605DF91CF910895EA01CE17DF07E3
:102C3000E8F54A815B819E0141155105B1F7E90133
:102C4000FB83EA8349915991C40FD51FEC17FD0707
:102C500061F4808191810296840F951FE901998327
:102C60008883828193819B838A83F0E0E0E01296DF
:102C70008D919C9113970097B9F52D913C911197E7
:102C8000CD010296820F931F2091260530912705D2
:102C90002817390739F6309751F510922905109207
:102CA0002805B0932705A0932605BCCFD383C28304
:102CB00040815181840F951FC817D90761F44E5F79
:102CC0005F4F88819981480F591F518340838A81C2
:102CD0009B81938382832115310509F0B0CFF09356
:102CE0002905E09328059ECFFD01DC01C0CF1382AA
:102CF0001282D7CFB0E0A0E0E0E8F6E10C94B11387
:102D00008C01009751F4CB010E9455158C01C8012C
:102D1000CDB7DEB7E0E10C94CD13FC01E60FF71F51
:102D20009C0122503109E217F30708F49DC0D90134
:102D3000CD91DC911197C617D70798F0C530D10512
:102D400030F3CE0104978617970708F3C61BD70BFD
:102D50002297C193D1936D937C93CF010E94F1157B
:102D6000D6CF5B01AC1ABD0A4C018C0E9D1EA09102
:102D70002805B0912905512C412CF12CE12C1097FC
:102D800031F580912605909127058815990509F060
:102D90005CC04616570608F058C080919201909189
:102DA0009301009741F48DB79EB7409196015091E1
:102DB0009701841B950BE817F90708F055C0F093AD
:102DC0002705E0932605F90171836083A0CF8D91DB
:102DD0009C91119712966C90129713967C90139772
:102DE000A815B90559F56C0142E0C40ED11CCA14EE
:102DF000DB0420F1AC014A195B09DA011296159740
:102E000080F06282738251834083D9016D937C93F9
:102E1000E114F10471F0D7011396FC93EE9312972D
:102E200076CF22968C0F9D1FF90191838083F30149
:102E3000EFCFF0932905E093280569CF481659068E
:102E400008F42C017D01D3019ACFCB010E945515C6
:102E50007C01009749F0AE01B8010E943717C80104
:102E60000E94F115870153CF10E000E050CFFB0125
:102E7000DC0102C001900D9241505040D8F70895F6
:102E8000FB01DC018D91019080190110D9F3990BA0
:102E90000895FB01DC0101900D920020E1F70895F7
:102EA00010E0C2E6D0E004C0FE010E944F1521965A
:102EB000C336D107C9F7F894FFCF100708080808F0
:102EC00008070F101F101F00041F040A1F000A0E1E
:102ED0000A0E0E110E041F00101F00010D111D110E
:102EE0001D0100010909151501000F101E101F001A
:102EF0001F0000021E17161E02000000040A110027
:102F00001F00000A0A0000110E000000040A0A1146
:102F1000150E04040A0A0A15150E000A0A00000A12
:102F20001500000A1F1F08020A00000A1F1F0208DE
:102F30000A0000150E1B0E1500000000150E1B0EDA
:102F4000150000000000000000150B0000002A051D
:102F500080000000400014005400000000005803EE
:102F6000B802E502A5031603F402080300000000FE
:102F70008204550499052B044E043B042C040000E4
:102F80000000CC06B802990598053A0020202020C0
:102F900020202020202020200057656C636F6D6565
:102FA00020746F2074686520736D6172742063698A
:102FB000747921005B6C6F6164696E675D20004904
:102FC0006E69742053637265656E00496E69742082
:102FD0004750494F00496E69742044485431312F9D
:102FE00032320052656164204448543131206461BA
:102FF0007461007374617274206D61696E006E613A
:103000006E00696E66006F7666000D0A00436861A7
:103010006E6365206F6620736E6F772E2053656533
:1030200020737461747573206261722E004368614D
:103030006E6365206F66207261696E2E2053656530
:1030400020737461747573206261722E0043686925
:103050006C6C7920746F6461792E2042756E646C9B
:103060006520757021203A280048696768207465DA
:103070006D70657261747572652E2042657761723C
:1030800065206F6620686561747374726F6B652E5E
:1030900000546865207765617468657220697320E3
:1030A000706C656173616E742E2057656C636F6D13
:1030B0006520746F2074686520536D6172742043BD
:1030C0006974792E00202D2D250025202020004D0B
:1030D0006F64756C652044485431312F323220734F
:1030E00069676E616C2061626E6F726D616C212028
:1030F0005468652073797374656D2077696C6C20F2
:103100007265737461727420696E20333020736548
:10311000636F6E64732E005B455D0072657374614E
:0431200072740000C5
:107E0000112484B714BE81FFF0D085E080938100F7
:107E100082E08093C00088E18093C10086E0809377
:107E2000C20080E18093C4008EE0C9D0259A86E02C
:107E300020E33CEF91E0309385002093840096BBD3
:107E4000B09BFECF1D9AA8958150A9F7CC24DD24C4
:107E500088248394B5E0AB2EA1E19A2EF3E0BF2EE7
:107E6000A2D0813461F49FD0082FAFD0023811F036
:107E7000013811F484E001C083E08DD089C08234E0
:107E800011F484E103C0853419F485E0A6D080C0E4
:107E9000853579F488D0E82EFF2485D0082F10E0AE
:107EA000102F00270E291F29000F111F8ED06801E7
:107EB0006FC0863521F484E090D080E0DECF843638
:107EC00009F040C070D06FD0082F6DD080E0C81688
:107ED00080E7D80618F4F601B7BEE895C0E0D1E017
:107EE00062D089930C17E1F7F0E0CF16F0E7DF06D8
:107EF00018F0F601B7BEE89568D007B600FCFDCFD4
:107F0000A601A0E0B1E02C9130E011968C91119780
:107F100090E0982F8827822B932B1296FA010C0160
:107F200087BEE89511244E5F5F4FF1E0A038BF0790
:107F300051F7F601A7BEE89507B600FCFDCF97BE46
:107F4000E89526C08437B1F42ED02DD0F82E2BD052
:107F50003CD0F601EF2C8F010F5F1F4F84911BD097
:107F6000EA94F801C1F70894C11CD11CFA94CF0C13
:107F7000D11C0EC0853739F428D08EE10CD085E9AC
:107F80000AD08FE07ACF813511F488E018D01DD067
:107F900080E101D065CF982F8091C00085FFFCCF94
:107FA0009093C60008958091C00087FFFCCF809118
:107FB000C00084FD01C0A8958091C6000895E0E648
:107FC000F0E098E1908380830895EDDF803219F02E
:107FD00088E0F5DFFFCF84E1DECF1F93182FE3DFCA
:107FE0001150E9F7F2DF1F91089580E0E8DFEE27F6
:047FF000FF270994CA
:027FFE00040479
:00000001FF
