:020000040000FA
:100000000C9464000C948C000C948C000C948C0068
:100010000C948C000C948C000C948C000C94D50BDC
:100020000C948C000C948C000C948C000C948C0020
:100030000C948C000C948C000C948C000C948C0010
:100040000C948B0B0C948C000C94570C0C94310C6E
:100050000C948C000C948C000C948C000C948C00F0
:100060000C94890C0C948C000200000000240027E2
:10007000002A0000000000250028002B00000000DE
:100080000800020100000304070000000000000057
:1000900000000000002300260029000404040404DA
:1000A0000404040202020202020303030303030125
:1000B00002040810204080010204081020010204FC
:1000C00008102000ED0DE51611241FBECFEFD8E07B
:1000D000DEBFCDBF25E0A4ECB3E001C01D92A93A7C
:1000E000B207E1F713E0A0E0B1E0EEE8F7E302C009
:1000F00005900D92A43CB107D9F710E0C3E6D0E01B
:1001000004C02197FE010E94B919C236D107C9F770
:100110000E948A0E0C94BA1B0C940000CF92DF92BE
:10012000EF92FF92CF93DF93B0917405A0E081111D
:10013000AB2F8091750590E0880F991FAC014F5649
:100140005F4FC0907A05D0907B05E0907C05F090E1
:100150007D0530E020E0FA01C591D491E881B90134
:1001600090E080E0EB23EA130AC02F5F3F4F6C154D
:100170007D058E059F0578F36FEF7FEFCB01DF9153
:10018000CF91FF90EF90DF90CF90089590E0FC0129
:10019000E358FF4F2491FC01E155FF4F3491FC01DE
:1001A000E556FF4FE491EE23C9F0222339F02330C6
:1001B00001F1A8F4213019F1223029F1F0E0EE0F1D
:1001C000FF1FED58FF4FA591B4918FB7F894EC91B4
:1001D000611126C030953E233C938FBF0895273090
:1001E000A9F02830C9F0243049F7809180008F7D34
:1001F00003C0809180008F7780938000DFCF84B52B
:100200008F7784BDDBCF84B58F7DFBCF8091B0002D
:100210008F778093B000D2CF8091B0008F7DF9CFDF
:100220003E2BDACFCF93DF9390E0FC01E155FF4FF7
:10023000249185569F4FFC0184918823C9F090E05A
:10024000880F991FFC01E759FF4FA591B491FC015C
:10025000ED58FF4FC591D49161110DC09FB7F8942F
:100260008C91209582238C938881282328839FBF9B
:10027000DF91CF910895623051F49FB7F8943C918B
:10028000822F809583238C93E8812E2BEFCF8FB71D
:10029000F894EC912E2B2C938FBFEACF3FB7F894B4
:1002A0008091C0049091C104A091C204B091C30494
:1002B00026B5A89B05C02F3F19F00196A11DB11DC1
:1002C0003FBFBA2FA92F982F8827BC01CD01620FFD
:1002D000711D811D911D42E0660F771F881F991FB8
:1002E0004A95D1F708958F929F92AF92BF92CF9285
:1002F000DF92EF92FF924B015C010E944E016B0175
:100300007C010E944E016C197D098E099F09683E8F
:10031000734081059105A8F321E0821A9108A10894
:10032000B10888EEC80E83E0D81EE11CF11C8114D0
:100330009104A104B10429F7FF90EF90DF90CF90D2
:10034000BF90AF909F908F9008952FB7F8946091D1
:10035000BC047091BD048091BE049091BF042FBF76
:100360000895CF92DF92EF92FF920F931F93CF9356
:10037000DF93CDB7DEB7C054D1400FB6F894DEBFDF
:100380000FBECDBF0E94A5010091760510917705A3
:1003900020917805309179056B017C01C01AD10A52
:1003A000E20AF30A97018601003D17402105310555
:1003B00090F480917E05C05CDE4F0FB6F894DEBFEE
:1003C0000FBECDBFDF91CF911F910F91FF90EF90A6
:1003D000DF90CF90089560937605709377058093B2
:1003E000780590937905109271051092700510921E
:1003F0006F0510926E0510926D0562E08091720596
:100400000E94120161E070E080E090E00E947301C0
:1004100061E0809172050E94120160E08091720596
:100420000E94C600809173058551823020F58BE2D1
:1004300091E10197F1F762E0809172050E9412014B
:1004400080917F0590E08230910538F0880F991FE8
:10045000880F991F05970197F1F7F89480E00E94A3
:100460008E006F3F7F4F8F4F9F4F61F410927E053C
:10047000789480E0A0CF64E170E080E090E00E949A
:100480007301D9CF81E00E948E006F3F7F4F8F4F65
:100490009F4F61F38E010F5F1F4F6E012FEBC21A4A
:1004A0002EEFD20A780180E00E948E00F70160836F
:1004B00071838283938381E00E948E00F7016483BD
:1004C000758386839783F8E0EF0EF11CEC14FD042E
:1004D00051F7789430E020E0F801C080D180E280CC
:1004E000F3804481558166817781FFEFCF16DF0667
:1004F000EF06FF0631F04F3F8FEF58076807780788
:1005000019F410927E05B5CFF90183E0F595E795D2
:100510008A95E1F7E359FA4F8081880FC416D50612
:10052000E606F70610F180832F5F3F4F085F1F4FED
:100530002832310589F64091710520916D05809131
:100540006E05280F3327331F80916F05280F311D4B
:1005500080917005820F932F911D992748171906D6
:1005600081F681E080937E0526CF8160DCCF0895FF
:1005700008959091280189130BC0E8E6F0E0E4911A
:100580009FEF90932801E13049F028F0E23061F0CC
:1005900060E00C94C60010926E00FACF90916F004C
:1005A0009D7F90936F00F4CF909170009D7F90930A
:1005B000700091E09093B0009091B100987F9460AA
:1005C0009093B1001092B300E3CFAF92BF92CF925D
:1005D000DF92EF92FF920F931F93CF93DF936C0103
:1005E0007B018B01040F151FEB015E01AE18BF08E4
:1005F000C017D10759F06991D601ED91FC91019096
:10060000F081E02DC6010995892B79F7C501DF91AD
:10061000CF911F910F91FF90EF90DF90CF90BF90FF
:10062000AF900895FC01448155816081718180E81B
:1006300095E00C94E502FC01538D448D252F30E0AC
:10064000842F90E0821B930B541710F0CF960895DF
:1006500001970895FC01918D828D981761F0A28D0C
:10066000AE0FBF2FB11D5D968C91928D9F5F9F73D2
:10067000928F90E008958FEF9FEF0895FC01918D88
:10068000828D981731F0828DE80FF11D858D90E0F5
:1006900008958FEF9FEF0895FC01918D228D892F92
:1006A00090E0805C9F4F821B91098F73992708957A
:1006B00084EC94E00E944C0321E0892B09F420E0B3
:1006C000822F089580E090E0892B29F00E94580342
:1006D00081110C9400000895FC01A48DA80FB92F7E
:1006E000B11DA35ABF4F2C91848D90E001968F735A
:1006F0009927848FA689B7892C93A089B1898C9179
:10070000837080648C93938D848D981306C00288C7
:10071000F389E02D80818F7D80830895EF92FF9291
:100720000F931F93CF93DF93EC0181E0888F9B8D14
:100730008C8D98131AC0E889F989808185FF15C0CE
:100740009FB7F894EE89FF896083E889F9898081F1
:100750008370806480839FBF81E090E0DF91CF91C0
:100760001F910F91FF90EF900895F62E0B8D10E0E2
:100770000F5F1F4F0F731127E02E8C8D8E110CC051
:100780000FB607FCFACFE889F989808185FFF5CF9C
:10079000CE010E946C03F1CFEB8DEC0FFD2FF11D0C
:1007A000E35AFF4FF0829FB7F8940B8FEA89FB89D9
:1007B00080818062CFCFCF93DF93EC01888D882337
:1007C000B9F0AA89BB89E889F9898C9185FD03C0B4
:1007D000808186FD0DC00FB607FCF7CF8C9185FF99
:1007E000F2CF808185FFEDCFCE010E946C03E9CF6F
:1007F000DF91CF91089520913004260F3327331FC6
:1008000021323105ECF420915404FC0190E080E0A9
:10081000243069F082E00895A09130042191AC0168
:10082000405F5B4FA40FB52FB11D2C930196861727
:1008300098F380913004680F6093300480E008954D
:1008400081E008951092540481E080935604109240
:10085000550461E082E10E94C60061E083E10E94EC
:10086000C600E9EBF0E080818E7F808380818D7F00
:10087000808388E48093B80085E48093BC00089569
:10088000CF93DF9391E090930F048823B9F0C09148
:10089000B800D091BA008091BC008A7B8093BC00E4
:1008A00060E082E10E94C60060E083E10E94C60031
:1008B0000E942204D093BA00C093B800DF91CF9178
:1008C00008950895E091810480918004E81730F440
:1008D000F0E0E651FC4F808190E008958FEF9FEFAC
:1008E000089590918104809180042FEF3FEF981735
:1008F00048F4E92FF0E0E651FC4F208130E09F5FA3
:1009000090938104C901089580918004909181049D
:10091000891B990B0895CF92DF92EF92FF920F936C
:100920001F93CF93DF937C01CB018A012091E903D0
:10093000222389F0EB016B01C40ED51ECC15DD0519
:1009400069F06991D701ED91FC910190F081E02D62
:10095000C7010995F3CF642F0E94FB03C801DF9103
:10096000CF911F910F91FF90EF90DF90CF9008955E
:10097000CF93DF931F92CDB7DEB769832091E90350
:100980002223F9F020917E04203258F021E030E05B
:10099000FC013383228390E080E00F90DF91CF91C0
:1009A000089580917F04E82FF0E0E753FC4F998190
:1009B00090838F5F80937F0480937E0481E090E03A
:1009C000ECCF61E0CE0101960E94FB03F7CFCF92FE
:1009D000DF92EF92FF920F931F93CF93DF93FC016F
:1009E000C48121E02093E903C093C80310927F04DF
:1009F00010927E048485682B81E695E00E94B804FD
:100A0000D0917E04D13208F092C00E944E016B0159
:100A10007C0180915404811165C082E0809354046C
:100A200081E0809356048FEF8093530410927804F2
:100A3000D0937704A9ECB3E0E7E5F4E080E0D813C5
:100A400085C01092790480917904CC0FC82BC09393
:100A5000790480915504813009F07CC010925504CE
:100A60000E944E016B017C01809179048093BB0050
:100A700080910B0490910C04A0910D04B0910E0490
:100A8000892B8A2B8B2B99F00E944E0100910B042D
:100A900010910C0420910D0430910E046C197D0905
:100AA0008E099F090617170728073907E0F180917B
:100AB000BC0083FDD9CF85EC8093BC000E944E0121
:100AC0006B017C0180915404823009F445C080910F
:100AD00053048F3F61F180915304803241F1809142
:100AE000530425C080910B0490910C04A0910D0437
:100AF000B0910E04892B8A2B8B2B09F48ACF0E948C
:100B00004E0100910B0410910C0420910D043091C2
:100B10000E046C197D098E099F090617170728070F
:100B2000390708F076CF80910A040E9440041092A1
:100B30007F0410927E041092E903DF91CF911F9100
:100B40000F91FF90EF90DF90CF9008959D9191933A
:100B50008F5F75CF85EEB0CF80910B0490910C0420
:100B6000A0910D04B0910E04892B8A2B8B2B09F4D4
:100B7000A9CF0E944E0100910B0410910C0420910A
:100B80000D0430910E046C197D098E099F0906171A
:100B900017072807390708F095CFC5CF089590E0CB
:100BA00080E00895CF92DF92EF92FF92CF930E9460
:100BB000B101882349F0809173058B3028F08D3086
:100BC00040F085518230D0F160E070E080EC9FE72A
:100BD0001CC060916E0570E090E080E00E94FC1601
:100BE0002DEC3CEC4CEC5DE30E945B176B017C014F
:100BF00060916D0570E090E080E00E94FC169B0122
:100C0000AC01C701B6010E9451186093A104709312
:100C1000A2048093A3049093A4040E94B1018823AA
:100C200041F0809173058C3009F469C0C8F48B30B1
:100C300081F160E070E080EC9FE753C060916D054A
:100C400070916E0576276727762790E080E00E94F6
:100C5000FA162DEC3CEC4CEC5DE30E945B17D5CF13
:100C60008551823030F7C0916F056C2F70E0762F80
:100C7000662766277F7780917005682B90E080E07B
:100C80000E94FA162DEC3CEC4CEC5DE30E945B17E5
:100C900052C060916F0570E090E080E00E94FA160B
:100CA0006B017C01C0917005C7FF0AC0AC019B01BC
:100CB00060E070E080E89FEB0E9450186B017C01BF
:100CC000CF706C2F70E090E080E00E94FC162DEC5D
:100CD0003CEC4CEC5DE30E945B17A70196010E947F
:100CE000511860939D0470939E0480939F04909389
:100CF000A004CF91FF90EF90DF90CF900895C09126
:100D00006F056C2F70E090E080E00E94FA166B0196
:100D10007C01609170056F7070E090E080E00E944F
:100D2000FC162DEC3CEC4CEC5DE30E945B17A7013C
:100D300096010E945118C7FFD4CF9058D2CF0F937D
:100D40001F93CF938C01C62F0E94E7046C2F646021
:100D5000C8010E94E7046C2F6B7FC8010E94E70462
:100D600083EC90E00197F1F7CF911F910F910895D7
:100D70000F931F93CF93DF938C01D62FC42F607FE7
:100D8000642B0E949F0680E1D89FB00111246C2B38
:100D9000C801DF91CF911F910F910C949F06CF93C3
:100DA000DF93CDB7DEB728970FB6F894DEBF0FBE3E
:100DB000CDBF98E0EDEBF1E0DE01119601900D92D0
:100DC0009A95E1F790918805961710F46FEF690FE7
:100DD000262F30E0220F331F41E050E04C0F5D1F03
:100DE000240F351FF9016081680F606840E080E8DA
:100DF00095E028960FB6F894DEBF0FBECDBFDF9109
:100E0000CF910C94B80641E00E94B80681E090E0D2
:100E1000089540E061E080E895E00E94B8068BE329
:100E20009FE10197F1F780918905882321F060E027
:100E300080E00C94CF0608950F931F93CF93DF9318
:100E40008B0198E0899FB0011124606440E080E844
:100E500095E00E94B806E801085F1F4F699180E89D
:100E600095E00E940307C017D107C1F7DF91CF912A
:100E70001F910F910895FB0101900020E9F7319730
:100E8000AF01461B570BDC01ED91FC910280F38111
:100E9000E02D09948F929F92AF92BF92EF92FF92B2
:100EA0000F931F93CF93DF93CDB7DEB7A1970FB604
:100EB000F894DEBF0FBECDBF7C01FA01CB0119A2B1
:100EC000223008F42AE08E010F5D1F4F822E912CF4
:100ED000B12CA12CBF01A50194010E948319F90135
:100EE000CA016A300CF5605DD8016E938D01232B29
:100EF000242B252B79F790E080E0109721F0BD019D
:100F0000C7010E943B07A1960FB6F894DEBF0FBE43
:100F1000CDBFDF91CF911F910F91FF90EF90BF90C8
:100F2000AF909F908F900895695CDECFCF92DF9253
:100F3000EF92FF926C01990FEE08FF08F7FE18C0C0
:100F400041E06DE280E895E00E94B806442755270D
:100F5000BA014C195D096E097F092AE080E895E025
:100F60000E944A070196FF90EF90DF90CF9008957E
:100F70002AE0B701A60180E895E0FF90EF90DF90AE
:100F8000CF900C944A070C943B0760E080E00E94ED
:100F9000CF0660E080E895E00E94030762E080E809
:100FA00095E00E94030765EF71E080E895E00E94FC
:100FB000C30760919D0470919E0480919F0490915D
:100FC000A0040E942F19CB010E94960763E080E8DD
:100FD00095E00E9403076BE872E080E895E00E94CC
:100FE000C30760E087E00E94CF0661E080E895E0FB
:100FF0000E94030762E080E895E00E94030765EF26
:1010000071E080E895E00E94C3076091A1047091AF
:10101000A2048091A3049091A4040E942F19CB01F3
:101020000E94960768E473E080E895E00E94C30799
:101030006091A1047091A2048091A3049091A404F2
:101040000E942F196436710534F46BE872E080E871
:1010500095E00C94C3070895CF93DF93EC01A8812A
:10106000B981EB01E881F9811097F1F03097B1F483
:10107000EC018C819D81892BC9F08C9190E00BC093
:10108000DB0114968D919C91892B81F0808190E0F9
:10109000919581959109DF91CF910895BF01CD017F
:1010A000DF91CF910C94AA1B309751F790E080E02C
:1010B000F2CF0F931F93CF93DF93EC018881998137
:1010C000009759F02A813B812617370730F081E0DD
:1010D000DF91CF911F910F9108958B016F5F7F4F2B
:1010E0000E94E41A009759F0998388831B830A832E
:1010F0002C813D81232B59F7FC011082E8CF80E041
:10110000E7CFCF93DF93EC0188819981009711F0AD
:101110000E945B1A198218821D821C821B821A820D
:10112000DF91CF910895EF92FF920F931F93CF938A
:10113000DF93EC017B018A01BA010E9459088111F9
:101140000BC0CE010E948108CE01DF91CF911F918B
:101150000F91FF90EF9008951D830C83B701888154
:1011600099810E94B31BF0CFFB0101900020E9F7A9
:101170003197AF01461B570B0C949308FB0101906C
:101180000020E9F73197AF01461B570B0C949308E9
:10119000CF93DF93EC01FB018617970749F060813D
:1011A00071816115710541F0448155810E94930858
:1011B000CE01DF91CF9108950E948108F9CFFC0103
:1011C00080819181009711F00C945B1A0895AF9281
:1011D000BF92CF92DF92EF92FF920F931F93CF9324
:1011E000DF93CDB7DEB72C970FB6F894DEBF0FBEF6
:1011F000CDBF0E94A5010091C4031091C5032091A9
:10120000C6033091C703601B710B820B930B6C32CA
:1012100071408105910508F40DC11A8219821C8262
:101220001B821E821D826DE875E0CE0101960E9430
:10123000C8080D811E810F5F1F4FB801CE010196B6
:101240000E945908882309F462C029813A818D815E
:101250009E816BE872E0820F931F0E94B31B1E8376
:101260000D8318861F821A8619861C861B86BE016E
:101270006F5F7F4FCE0107960E94C808CE0101968E
:101280000E94DF08D12CC12CE090B501F090B6018E
:10129000CE14DF040CF045C01A8219821C821B8216
:1012A0001E821D826BE872E0CE0101960E94BE088C
:1012B000EF80F884E114F10479F10B851C850115A8
:1012C0001105B1F08D819E81080F191FB801CE0163
:1012D00001960E9459088823F9F029813A818D816D
:1012E0009E81B701820F931F0E94B31B1E830D8343
:1012F000BE016F5F7F4FCE0107960E94C808CE01E6
:1013000001960E94DF088FEFC81AD80ABDCFCE0120
:1013100001960E948108A5CFCE0101960E94810806
:10132000E7CFAB84BC8461E080E00E94CF060091EF
:10133000970410919804E00EF11EE016F10628F0D3
:101340009E2D8F2D7801092F182F1A8219821C8249
:101350001B821E821D826BE772E0CE0101960E9405
:10136000BE08CB84DC84EC14FD04E0F40C151D05F0
:1013700008F46801EF81F885EC0DFD1D10811082E5
:101380006F8178856E0D7F1DCE0101966115710507
:1013900009F461C00E94B4088F819885C80ED91ED7
:1013A000F6011083CE0101960E941203CE01019630
:1013B0000E94DF082091A3053091A405809191053A
:1013C000909192052817390741F46DE875E08FE98F
:1013D00095E00E942C08892B99F020919704309178
:1013E0009804C50101972817390754F01092980402
:1013F000109297046FE975E08DE895E00E94C808A7
:1014000080919704909198040196B5010E946F19FC
:1014100090939804809397040E94A5016093C4035D
:101420007093C5038093C6039093C703CE010796BC
:101430000E94DF082C960FB6F894DEBF0FBECDBF1A
:10144000DF91CF911F910F91FF90EF90DF90CF90A0
:10145000BF90AF9008950E9481089ECF8F929F9277
:10146000AF92BF92CF92DF92EF92FF92CF93DF9332
:1014700080E190E09093B6018093B50120919105B1
:101480003091920580919D0590919E05281739070E
:1014900009F071C069E975E08DE895E00E942C08BB
:1014A000892B09F068C069E975E08FE995E00E9431
:1014B000C80869E975E08DE895E00E94C80861E018
:1014C0008AE00E94CF0666E872E080E895E00E941C
:1014D000C30760E080E00E94CF0667EF71E080E81C
:1014E00095E00E94C30783E995E00E9412030E94E1
:1014F000A5016B017C010E94A5018090A904909038
:10150000AA04A090AB04B090AC046C197D098E09BC
:101510009F090E94FA16A50194010E94F51618165B
:10152000ECF10E94A5016C197D098E099F090E94AA
:10153000FA169B01AC01C501B4010E94501820E0CD
:1015400030E04AE754E40E94BD180E942F194B0175
:10155000EB0160E08EE00E94CF062A9734F46BE83E
:1015600072E080E895E00E94C307C4010E949607DC
:101570000E94E708C0CF0E940907109298041092B9
:10158000970469E975E08FE995E00E94C80869E968
:1015900075E08DE895E00E94C8089BCF8BE090E055
:1015A0009093B6018093B50161E08AE00E94CF0676
:1015B00067E872E080E895E00E94C3070E94A501F9
:1015C0006093AF047093B0048093B1049093B2041D
:1015D0001092AE041092AD04DF91CF91FF90EF9086
:1015E000DF90CF90BF90AF909F908F90089585ED42
:1015F0008093BC0080910B0490910C04A0910D0489
:10160000B0910E040796A11DB11D23E0B695A795D4
:10161000979587952A95D1F72091BC0024FD03C0AA
:1016200010925404089540910B0450910C04609161
:101630000D0470910E04452B462B472B69F3009740
:10164000A105B10541F02AE22A95F1F700C0019702
:10165000A109B109E1CF80910A040C9440040F93D1
:101660001F9360E084E00E94C60083E090E0019751
:10167000F1F761E084E00E94C60083E290E0019708
:10168000F1F760E084E00E94C600E2EBF0E06491D4
:10169000EEE9F0E0E491F0E0EE0FFF1FEF56FF4FB0
:1016A0008591949100E315E720E030E0462F0E94F9
:1016B000A80D611571058105910551F06F5F7F4F90
:1016C0008F4F9F4F9F70611571058105910581F4C2
:1016D0008091990490919A04019690939A04809332
:1016E000990460E070E080E89FEB1F910F910895EE
:1016F00010929A04109299040E94FC1626E933E491
:101700004BE05DE30E945B1720E030E040E05FE3E8
:101710000E945B17EACF1F920F920FB60F9211240F
:101720002F933F938F939F93AF93BF938091BC046C
:101730009091BD04A091BE04B091BF043091BB0450
:1017400023E0230F2D3758F50196A11DB11D2093DD
:10175000BB048093BC049093BD04A093BE04B093DB
:10176000BF048091C0049091C104A091C204B091C3
:10177000C3040196A11DB11D8093C0049093C104C0
:10178000A093C204B093C304BF91AF919F918F9176
:101790003F912F910F900FBE0F901F90189526E844
:1017A000230F0296A11DB11DD2CF1F920F920FB62B
:1017B0000F9211242F933F934F935F936F937F93D7
:1017C0008F939F93AF93BF93EF93FF938091870481
:1017D00090918804A0918904B0918A04892B8A2B66
:1017E0008B2BD1F190918204E0918304F0918404D9
:1017F0008081892780838091870490918804A091BB
:101800008904B0918A04181619061A061B069CF45E
:101810008091870490918804A0918904B0918A04F2
:101820000197A109B1098093870490938804A0933C
:101830008904B0938A04FF91EF91BF91AF919F917A
:101840008F917F916F915F914F913F912F910F9069
:101850000FBE0F901F901895809128010E94B90229
:10186000EACF1F920F920FB60F9211242F933F933E
:101870004F935F936F937F938F939F93AF93BF9398
:10188000EF93FF9384EC94E00E946C03FF91EF913F
:10189000BF91AF919F918F917F916F915F914F9188
:1018A0003F912F910F900FBE0F901F9018951F9290
:1018B0000F920FB60F9211242F938F939F93EF9354
:1018C000FF93E091D404F091D5048081E091DA0493
:1018D000F091DB0482FD1BC090818091DD048F5F5D
:1018E0008F732091DE04821741F0E091DD04F0E077
:1018F000EC53FB4F958F8093DD04FF91EF919F9107
:101900008F912F910F900FBE0F901F90189580818F
:10191000F4CF1F920F920FB60F9211242F933F9383
:101920004F935F936F937F938F939F93AF93BF93E7
:10193000EF93FF938091B900887F803609F44AC005
:10194000F0F5883209F4A7C018F5803109F49BC07E
:10195000B8F4882309F4F9C0883009F494C0FF91E1
:10196000EF91BF91AF919F918F917F916F915F9117
:101970004F913F912F910F900FBE0F901F90189590
:10198000883109F488C0803251F78093530414C021
:10199000803409F49DC040F48033B9F38833F9F6FC
:1019A0008093530485ECB0C0803509F485C0883538
:1019B00009F496C0883499F60E94F70AD0CF883986
:1019C00009F48CC038F5883729F050F4883611F0C6
:1019D000803729F683E0809354041092520457C054
:1019E000883809F47BC0803919F0803809F0B7CF06
:1019F00080915204803208F071C0E091520481E07D
:101A00008E0F809352048091BB00F0E0EE5CFB4FA0
:101A100080833DC0803B39F0E0F4803A09F479C01E
:101A2000883A09F09CCF84E08093540410923104EA
:101A300010923004E0917C04F0917D04099580912E
:101A4000300481110FC081E08093300410921004A3
:101A500009C0803C09F4A6CF883C09F4A3CF883B99
:101A600009F07DCFE091310481E08E0F8093310445
:101A7000F0E0E05FFB4F80818093BB0090913104E8
:101A80008091300429C0809179048093BB0085EC5B
:101A90008093BC0064CF909178048091770498176C
:101AA00058F5E091780481E08E0F80937804F0E09F
:101AB000E95AFB4F8081E9CFE091780481E08E0FF5
:101AC000809378048091BB00F0E0E95AFB4F80835B
:101AD00090917804809177049817C8F285E8D8CF60
:101AE000E091780481E08E0F809378048091BB00B0
:101AF000F0E0E95AFB4F80838091560481115CCF5E
:101B000081E08093550484EA8093BC0010925404D1
:101B100026CF85EC8093BC0010925404809152042F
:101B2000803230F4E0915204F0E0EE5CFB4F108222
:101B30006091520470E0E0917A04F0917B0482E3BA
:101B400094E00995109252040ACF1092530434CFB6
:101B5000CF92DF92EF92FF920F931F93E82FF92F0E
:101B600005C0015011092109310961F190819623C5
:101B70009417B9F305C0015011092109310911F178
:101B8000908196239413F7CFC12CD12CE12CF12C0A
:101B90000AC08FEFC81AD80AE80AF80A0C151D0502
:101BA0002E053F0579F080818623841791F36C2DF3
:101BB0007D2D8E2D9F2D1F910F91FF90EF90DF9027
:101BC000CF90089560E070E080E090E01F910F9169
:101BD000FF90EF90DF90CF900895E4ECF4E0138253
:101BE000128288EE93E0A0E0B0E084839583A68320
:101BF000B78329EC31E03183208325EC30E0358751
:101C0000248724EC30E03787268720EC30E0318BC6
:101C1000208B21EC30E0338B228B22EC30E0358BB3
:101C2000248B26EC30E0378B268B118E128E138E90
:101C3000148EE1E6F5E01382128284839583A683F5
:101C4000B7838BED91E091838083EFE9F5E011821A
:101C50001082138212821582148260E072E0CF013A
:101C60000E94BE08E9E9F5E0118210821382128217
:101C7000158214826BE772E0CF010E94BE08E3E98F
:101C8000F5E01182108213821282158214826BE7B2
:101C900072E0CF010E94BE08EDE8F5E011821082EB
:101CA00013821282158214826FE975E0CF010E94BF
:101CB000C808E0E8F5E0138212828DEE91E091838E
:101CC0008083118687E2848380E1828782E0838734
:101CD0001486ADE6B5E08EE015968C9315978BE0F3
:101CE00016968C931697EDEBF0E0E4911796EC9333
:101CF0001797E9EAF0E0E4911896EC93189740E81A
:101D00005EE360E070E01D964D935D936D937C9370
:101D100050970895789484B5826084BD84B58160BD
:101D200084BD85B5826085BD85B5816085BD8091A6
:101D30006E00816080936E0010928100809181001E
:101D40008260809381008091810081608093810016
:101D5000809180008160809380008091B1008460D8
:101D60008093B1008091B00081608093B000809139
:101D70007A00846080937A0080917A0082608093F8
:101D80007A0080917A00816080937A0080917A0055
:101D9000806880937A001092C100E091D404F091A1
:101DA000D50482E08083E091D004F091D1041082C8
:101DB000E091D204F091D3048FEC80831092DC0484
:101DC000E091D804F091D90486E08083E091D604B4
:101DD000F091D704808180618083E091D604F091F6
:101DE000D704808188608083E091D604F091D70485
:101DF000808180688083E091D604F091D70480814F
:101E00008F7D80836BE172E084EC94E00E94C307D5
:101E10000FB6F894A8958091600088618093600067
:101E2000109260000FBE10928104109280041092F4
:101E30007F0410927E040E94220487EB92E090932C
:101E40007D0480937C0488EB92E090937B048093E4
:101E50007A041092850580918B05823018F098E005
:101E6000909385058093880562E370E080E090E0C0
:101E70000E94730160918C0580E895E00E94E70460
:101E800068EE73E080E090E00E94730160E380E818
:101E900095E00E949F06CBE4D6E4CE010197F1F7CE
:101EA00060E380E895E00E949F062197F1F760E3E8
:101EB00080E895E00E949F0683E592E00197F1F7A4
:101EC00060E280E895E00E949F066091850560626F
:101ED00040E080E895E00E94B80684E080938605A3
:101EE00040E06CE080E895E00E94B8060E94090797
:101EF00082E08093870540E066E080E895E00E94FC
:101F0000B80640E062E080E895E00E94B8068BE306
:101F10009FE10197F1F70E94090761E080E00E94CC
:101F2000CF0666E272E080E895E00E94C307C8E051
:101F3000C0938C0560E080E895E00E94E70460E2D1
:101F400071E080E00E941C0768E171E081E00E947E
:101F50001C0760E171E082E00E941C0768E071E00C
:101F600083E00E941C0760E071E084E00E941C078F
:101F70006DEA71E085E00E941C0760E082E00E944B
:101F8000CF0660E080E895E00E94030761E080E80A
:101F900095E00E94030762E080E895E00E94030755
:101FA0006BE872E080E895E00E94C30763E080E898
:101FB00095E00E94030764E080E895E00E94030733
:101FC00062E372E080E895E00E94C30761E080E090
:101FD0000E94CF066AE372E080E895E00E94C307A2
:101FE00065E080E895E00E94030762E872E080E81F
:101FF00095E00E94C30761E08DE00E94120161E05C
:1020000088E00E94120161E087E00E94120161E015
:1020100086E00E94120161E084E00E94120160E00B
:1020200083E00E94120161E080E00E94CF0664E438
:1020300072E080E895E00E94C30765E080E895E0E3
:102040000E94030762E872E080E895E00E94C307FF
:1020500062E0809172050E9412010E94A501605DFC
:102060007740810991096093760570937705809395
:1020700078059093790587E380937F0561E080E0A0
:102080000E94CF0662E572E080E895E00E94C307F7
:1020900065E080E895E00E94030762E872E080E86E
:1020A00095E00E94C30760ED77E080E090E00E9439
:1020B00073010E94D20561E080E00E94CF0662E6D3
:1020C00072E080E895E00E94C30762E872E080E871
:1020D00095E00E94C3076DEA71E080E00E941C0752
:1020E00060E080E895E00E9403070E9409071092D3
:1020F0008C0560E080E895E00E94E7046AE070E00B
:1021000080E090E00E947301C0938C0560E080E85D
:1021100095E00E94E70461E471E080E00E941C0702
:1021200069E371E081E00E941C0761E371E082E0F5
:102130000E941C0769E271E083E00E941C070E9474
:10214000C5070E94A5010E94FA166093B704709318
:10215000B8048093B9049093BA040E94A5016093D7
:10216000AF047093B0048093B1049093B20405E07F
:1021700010E054E0252E312CC1E00E942F0B6B01A2
:102180007C010E94A5010E94FA162091B7043091AB
:10219000B8044091B9045091BA040E94501820E04C
:1021A00030E04AE754E40E94651987FD3BC0A7016F
:1021B0009601C701B6010E946A196DE672E08111AD
:1021C0001BC046015701E894B7F82FEF3FEF4FE7E8
:1021D0005FE7C501B4010E946A1981117BC02FEF2E
:1021E0003FEF4FE75FE7C501B4010E94F5161816EF
:1021F0000CF070C061E772E084EC94E00E943B0751
:1022000069E772E084EC94E00E943B070E94A5011C
:102210000E94FA166093B7047093B8048093B904CF
:102220009093BA0420E030E040E752E4C701B601E1
:102230000E94F51687FF0AC00E94A5016093B304AF
:102240007093B4048093B5049093B60420E030E01A
:1022500040EA50E4C701B6010E94F51618160CF4C6
:1022600060C220E030E040E85FEBC701B6010E94A9
:10227000F516882309F455C2809128018D3009F0A4
:10228000A7C0E8E6F0E0D491D7FD4AC161E08DE057
:102290000E941201DD2309F40DC1D23009F021C1E1
:1022A0008091B100887F82608093B1008DED809332
:1022B000B3008FEF9FEFDC01809387049093880435
:1022C000A0938904B0938A04809170008260809307
:1022D000700026C12FEF3FEF4FE75FE4C701B60163
:1022E0000E94651918161CF465E772E085CF2FEF80
:1022F0003FEF4FE75FECC701B6010E94F51687FD7F
:10230000F3CF20E030E0A901C701B6010E94F51625
:1023100087FF5BC06DE284EC94E00E948E03C701EE
:10232000B60190582AE037ED43EA5BE30E9451186A
:102330002B013C010E9436194B015C010E94FA16E8
:102340009B01AC01C301B2010E9450182B013C015A
:102350002AE0B501A40184EC94E00E944A076EE2F1
:1023600084EC94E00E948E0320E030E040E251E4EF
:10237000C301B2010E945B172B013C010E94361978
:102380004B01B12CA12C2AE0B501A40184EC94E00E
:102390000E944A07C501B4010E94FA169B01AC01D4
:1023A000C301B2010E94501820E030E040E251E445
:1023B0000E945B170E943619AB0170E060E02AE0D2
:1023C00084EC94E00E944A071BCFC701B601AACF54
:1023D0008F3F09F0A5C08DE080932801E8E6F0E08A
:1023E000D491DF3F09F49CC0D13021F150F0D230BC
:1023F00009F43EC0D7FD94C061E08DE00E94120157
:102400004CCF14BC15BC84B5826084BD85B5816099
:1024100085BDE8EAF0E0E491F0E0EE0FFF1FED5833
:10242000FF4F85919491ECEBF0E0E491E09386040A
:10243000D0E02CCF1092800010928100809181001A
:102440008860809381008091810081608093810009
:10245000E8EAF0E0E491F0E0EE0FFF1FED58FF4FE7
:1024600085919491ECEBF0E0E491E09385040ECF3C
:102470001092B0001092B1008091B0008260809301
:10248000B0008091B10081608093B100E8EAF0E093
:10249000E491F0E0EE0FFF1FED58FF4F859194910E
:1024A0009093840480938304ECEBF0E0E491E09358
:1024B0008204ECCE85B5887F826085BD8DED87BDB9
:1024C0008FEF9FEFDC0180938F0490939004A09393
:1024D0009104B093920480916E00826080936E00AC
:1024E0001FC0D13009F015C180918100887F8160C3
:1024F0008093810040EF56E050938900409388001C
:102500008FEF9FEFDC0180938B0490938C04A0935A
:102510008D04B0938E0480916F00826080936F0071
:102520000E94A501C090B304D090B404E090B5041B
:10253000F090B6046C197D098E099F0961337547C7
:102540008105910508F41BC10E94090765E671E049
:1025500080E00E941C076DE571E081E00E941C078D
:1025600065E571E082E00E941C076DE471E083E0A4
:102570000E941C0760E080E00E94CF0660E080E8D7
:1025800095E00E94030761E08CE00E94CF0661E0C5
:1025900080E895E00E94030762E080E895E00E94F1
:1025A00003076BE872E080E895E00E94C30763E0F0
:1025B00080E895E00E9403070E94A5016B017C0161
:1025C000BAEFCB0ED11CE11CF11C0E942F0B20E0B6
:1025D00030E040EF51E40E94651918160CF0A7C0D6
:1025E0000E94A5016C157D058E059F0570F3209155
:1025F0004B0130914C01C0909504D0909604C20ECE
:10260000D31ED0929604C092950480914901909176
:102610004A01E0909304F0909404E80EF91EF092C1
:102620009404E0929304A601415051094E3451059F
:1026300050F447E0E416F1046CF0A6014B53510945
:102640004230510538F431952195310930934C01D0
:1026500020934B019701215031092E30310548F468
:10266000265031092230310558F45BE3C516D104F8
:102670003CF091958195910990934A01809349018D
:1026800060E080E00E94CF066CE772E080E895E0B1
:102690000E94C30761E080E00E94CF0660E872E01C
:1026A00080E895E00E94C307C70168E070E00E94DF
:1026B0006F199C01C601B8010E946F19D101A81BB6
:1026C000B90B4C2F01C0440FAA95EAF7E5E6F1E0FB
:1026D00090E080E08217930741F1108201963196D5
:1026E00088309105B9F765E671E080E00E941C072B
:1026F000F7FE03C0B7E0EB0EF11C93E0F594E7940E
:102700009A95E1F7C601B8010E946F19862F6E2DC8
:1027100033CFD23021F0D11103CF80EFD0CE80EF74
:10272000C6CD8DE00E94B902FBCE4083D7CF0E9478
:10273000090761E471E080E00E941C0769E371E031
:1027400081E00E941C0761E371E082E00E941C07A7
:1027500069E271E083E00E941C070E94A50160937A
:10276000AF047093B0048093B1049093B20488E0F6
:1027700080938C0560E080E895E00E94E7040E9469
:10278000D2058090A1049090A204A090A304B090E0
:10279000A40420E030E040EA52E4C501B4010E9404
:1027A0006519C0909D04D0909E04E0909F04F09025
:1027B000A00487FD99C120E030E040E050ECC70163
:1027C000B6010E94F51618160CF456C120E030E050
:1027D00040EA52E4C501B4010E94501820E030E004
:1027E00040EA51E40E94BD1820E030E048EC52E499
:1027F0000E945B176B017C010E94A50128EE33E06B
:1028000040E050E00E948319643F714081059105CA
:1028100008F42FC165EA71E084E00E941C076DE8AE
:1028200072E08FE995E00E94B40860E08EE00E94BB
:10283000CF0620E030EC49E754E4C501B4010E9422
:10284000F516181634F06BE872E080E895E00E9407
:10285000C30764E080E895E00E94030768E872E03F
:1028600080E895E00E94C30761E08CE00E94CF06FB
:1028700020E030E04AE754ECC701B6010E94F516AB
:1028800065E473E0882329F120E030E040E151E481
:10289000C701B6010E94F5166AE872E0181664F4E2
:1028A00020E030E046EC52E4C701B6010E94F51684
:1028B000181634F06BE872E080E895E00E94C307D8
:1028C000C701B6010E942F19CB010E9496076AE446
:1028D00073E080E895E00E94C3070E94C5070E944C
:1028E000E7080E94A50128E93AE340E050E00E9491
:1028F00083190E94FA166B017C0120E030E64AEE53
:1029000055E40E94F51618160CF434C160E086E018
:102910000E94C60060E087E00E94C60061E088E097
:102920000E94C6000E94A501C090AF04D090B004E0
:10293000E090B104F090B2046C197D098E099F09F2
:10294000643671058105910508F462C18091AD047A
:102950009091AE0401969093AE048093AD04809163
:10296000AD049091AE0403970CF47AC16FE473E068
:1029700089E995E00E94B40864E873E083E995E092
:102980000E94B40880E098ECAFE2B7E48093A90419
:102990009093AA04A093AB04B093AC040E940907DF
:1029A00060E080E00E94CF0680E190E09093B60165
:1029B0008093B5016BE873E080E895E00E94C3075F
:1029C00083E995E00E9412030E94A5016B017C013E
:1029D000109298041092970469E975E08FE995E0E8
:1029E0000E94C80869E975E08DE895E00E94C80872
:1029F0000E94A5018090A9049090AA04A090AB0425
:102A0000B090AC046C197D098E099F090E94FA16DA
:102A1000A50194010E94F51618160CF4FEC00E9440
:102A2000A5016C197D098E099F090E94FA169B0168
:102A3000AC01C501B4010E94501820E030E04AE723
:102A400054E40E94BD180E942F194B01EB0160E075
:102A50008EE00E94CF062A9734F46BE872E080E89B
:102A600095E00E94C307C4010E9496070E94E708F0
:102A7000BFCF6DE971E0D0CE20E030E040EF51E40F
:102A8000C701B6010E94F516181674F120E030E077
:102A900040EA52E4C501B4010E94501820E030E041
:102AA00040EA51E40E94BD1820E030E048EC52E4D6
:102AB0000E945B176B017C010E94A50128EE33E0A8
:102AC00040E050E00E948319643F71408105910508
:102AD00040F065E971E084E00E941C076DEA72E055
:102AE000A0CE6DE871E0F7CF20E030E040EA51E49D
:102AF000C701B6010E94F51687FF12C065E871E0B4
:102B000084E00E941C076DEC72E08FE995E00E9462
:102B1000B408C12CD12C8AE7E82E84ECF82E85CE9F
:102B200020E030E040ED51E4C701B6010E94651994
:102B30001816C4F40E94A50128EE33E040E050E0EE
:102B40000E948319643F71408105910540F06DE753
:102B500071E084E00E941C0769EE72E0D6CF65E761
:102B600071E0F7CF6DE671E084E00E941C0761E13F
:102B700073E0CBCF20E030E04AEF55E4C701B60167
:102B80000E94F516181654F060E086E00E94C60018
:102B900061E087E00E94C60060E0C1CE20E030ED39
:102BA00044E056E4C701B6010E94F516181634F049
:102BB00060E086E00E94C60060E0EBCF20E030EAF3
:102BC0004CE056E4C701B6010E94F5161816E4F66B
:102BD00020E030E744E156E4C701B6010E94F51653
:102BE000181634F720E030E44CE156E4C701B60192
:102BF0000E94F516181644F620E030E144E256E44F
:102C0000C701B6010E94F516181694F661E0D1CFFF
:102C10001092AE041092AD04A2CE6DEA71E087E08E
:102C20000E941C070E94090760E080E00E94CF0616
:102C30006FE873E080E895E00E94C30767E080E8F2
:102C400095E00E94030788E199E00FB6F894A895F3
:102C5000809360000FBE909360000E940907FFCF31
:102C60000E94A501C090A504D090A604E090A704FE
:102C7000F090A8046C197D098E099F09683E734085
:102C80008105910508F465C00E94A5016093A50423
:102C90007093A6048093A7049093A8048090A10445
:102CA0009090A204A090A304B090A404A501940164
:102CB000C501B4010E946A19811122C0C0909D040F
:102CC000D0909E04E0909F04F090A004A70196018C
:102CD000C701B6010E946A19811112C020E030E0DC
:102CE000A901C501B4010E94F516811169C020E057
:102CF00030E0A901C701B6010E94F516811160C03C
:102D000080919B0490919C04019690939C048093E5
:102D10009B0480919B0490919C040597D4F067E9F3
:102D200073E089E995E00E94B4086DEA73E083E9F5
:102D300095E00E94B40880E090E4ACE1B6E48093B2
:102D4000A9049093AA04A093AB04B093AC040E948E
:102D50002E0A8091990490919A044497D4F063EBE1
:102D600073E089E995E00E94B4086FEB73E083E9B2
:102D700095E00E94B40880E090E4ACE1B6E4809372
:102D8000A9049093AA04A093AB04B093AC040E944E
:102D90002E0A0E94A5016093AF047093B004809343
:102DA000B1049093B20480E090E0892B09F4E5C966
:102DB0000E945803882309F4DCC90E940000D9C985
:102DC00010929C0410929B04A4CF8DE895E00E9481
:102DD000DF0883E995E00E94DF0889E995E00E9419
:102DE000DF088FE995E00C94DF080E94371708F49C
:102DF00081E00895E89409C097FB3EF49095809592
:102E0000709561957F4F8F4F9F4F9923A9F0F92FB0
:102E100096E9BB279395F695879577956795B7952E
:102E2000F111F8CFFAF4BB0F11F460FF1BC06F5F14
:102E30007F4F8F4F9F4F16C0882311F096E911C026
:102E4000772321F09EE8872F762F05C0662371F047
:102E500096E8862F70E060E02AF09A95660F771F5B
:102E6000881FDAF7880F9695879597F90895990F37
:102E70000008550FAA0BE0E8FEEF16161706E80744
:102E8000F907C0F012161306E407F50798F0621B65
:102E9000730B840B950B39F40A2661F0232B242B3A
:102EA000252B21F408950A2609F4A140A6958FEF59
:102EB000811D811D08950E946E170C94DF170E94DA
:102EC000D11738F00E94D81720F0952311F00C94F8
:102ED000C8170C94CE1711240C9413180E94F017E5
:102EE00070F3959FC1F3950F50E0551F629FF0015D
:102EF000729FBB27F00DB11D639FAA27F00DB11D76
:102F0000AA1F649F6627B00DA11D661F829F2227FE
:102F1000B00DA11D621F739FB00DA11D621F839F85
:102F2000A00D611D221F749F3327A00D611D231F5B
:102F3000849F600D211D822F762F6A2F11249F57A9
:102F400050409AF0F1F088234AF0EE0FFF1FBB1FAC
:102F5000661F771F881F91505040A9F79E3F51056B
:102F600080F00C94C8170C9413185F3FE4F3983E5C
:102F7000D4F3869577956795B795F795E7959F5F15
:102F8000C1F7FE2B880F911D9695879597F90895A7
:102F900097F99F6780E870E060E008959FEF80EC0C
:102FA000089500240A9416161706180609060895AF
:102FB00000240A9412161306140605060895092E15
:102FC0000394000C11F4882352F0BB0F40F4BF2B84
:102FD00011F460FF04C06F5F7F4F8F4F9F4F0895C4
:102FE00057FD9058440F551F59F05F3F71F04795BA
:102FF000880F97FB991F61F09F3F79F0879508959F
:10300000121613061406551FF2CF4695F1DF08C0BD
:10301000161617061806991FF1CF869571056105DA
:1030200008940895E894BB2766277727CB0197F982
:1030300008952F923F924F925F926F927F928F925C
:103040009F92AF92BF92CF92DF92EF92FF920F9337
:103050001F93CF93DF93CDB7DEB7CA1BDB0B0FB641
:10306000F894DEBF0FBECDBF09942A8839884888FE
:103070005F846E847D848C849B84AA84B984C88494
:10308000DF80EE80FD800C811B81AA81B981CE0F8B
:10309000D11D0FB6F894DEBF0FBECDBFED01089570
:1030A0005058BB27AA270E9468180C94DF170E946B
:1030B000D11738F00E94D81720F039F49F3F19F447
:1030C00026F40C94CE170EF4E095E7FB0C94C81789
:1030D000E92F0E94F01758F3BA17620773078407A5
:1030E000950720F079F4A6F50C9412180EF4E095EB
:1030F0000B2EBA2FA02D0B01B90190010C01CA01B2
:10310000A0011124FF27591B99F0593F50F4503E5C
:1031100068F11A16F040A22F232F342F4427585F4E
:10312000F3CF469537952795A795F0405395C9F766
:103130007EF41F16BA0B620B730B840BBAF091501E
:10314000A1F0FF0FBB1F661F771F881FC2F70EC0BD
:10315000BA0F621F731F841F48F487957795679590
:10316000B795F7959E3F08F0B0CF9395880F08F07C
:103170009927EE0F9795879508950E94D1180C9482
:10318000DF170E94D81758F00E94D11740F029F499
:103190005F3F29F00C94C81751110C9413180C942C
:1031A000CE170E94F01768F39923B1F3552391F3DA
:1031B000951B550BBB27AA2762177307840738F0A6
:1031C0009F5F5F4F220F331F441FAA1FA9F335D003
:1031D0000E2E3AF0E0E832D091505040E695001CB7
:1031E000CAF72BD0FE2F29D0660F771F881FBB1F71
:1031F000261737074807AB07B0E809F0BB0B802D4F
:10320000BF01FF2793585F4F3AF09E3F510578F07A
:103210000C94C8170C9413185F3FE4F3983ED4F352
:10322000869577956795B795F7959F5FC9F7880F4E
:10323000911D9695879597F90895E1E0660F771FA0
:10324000881FBB1F621773078407BA0720F0621B31
:10325000730B840BBA0BEE1F88F7E09508950E945C
:1032600036196894B1110C94131808950E94F81738
:1032700088F09F5798F0B92F9927B751B0F0E1F037
:10328000660F771F881F991F1AF0BA95C9F714C0E7
:10329000B13091F00E941218B1E008950C94121808
:1032A000672F782F8827B85F39F0B93FCCF3869520
:1032B00077956795B395D9F73EF49095809570957D
:1032C00061957F4F8F4F9F4F08950E94371708F4E5
:1032D0008FEF08950E943717880B990B089597FB7D
:1032E000072E16F4009407D077FD09D00E94A51987
:1032F00007FC05D03EF4909581959F4F08957095F9
:1033000061957F4F0895A1E21A2EAA1BBB1BFD01F8
:103310000DC0AA1FBB1FEE1FFF1FA217B307E407B4
:10332000F50720F0A21BB30BE40BF50B661F771F0C
:10333000881F991F1A9469F76095709580959095EC
:103340009B01AC01BD01CF010895AA1BBB1B51E13C
:1033500007C0AA1FBB1FA617B70710F0A61BB70B05
:10336000881F991F5A95A9F780959095BC01CD01AA
:103370000895EE0FFF1F0590F491E02D09940F932F
:103380001F93CF93DF938230910510F482E090E099
:10339000E091A705F091A80530E020E0B0E0A0E0C2
:1033A000309799F42115310509F44AC0281B390BCF
:1033B00024303105D8F58A819B816115710589F129
:1033C000FB0193838283FE0111C040815181028100
:1033D000138148175907E0F04817590799F41097D7
:1033E00061F012960C93129713961C933296CF01AC
:1033F000DF91CF911F910F9108950093A70510932E
:10340000A805F4CF2115310551F04217530738F0C4
:10341000A901DB019A01BD01DF01F801C1CFEF0174
:10342000F9CF9093A8058093A705CDCFFE01E20FB9
:10343000F31F819391932250310939832883D7CF89
:103440002091A5053091A605232B41F42091B901C7
:103450003091BA013093A6052093A5052091B701BC
:103460003091B8012115310541F42DB73EB7409197
:10347000BB015091BC01241B350BE091A505F091D7
:10348000A605E217F307A0F42E1B3F0B28173907F8
:1034900078F0AC014E5F5F4F2417350748F04E0FB0
:1034A0005F1F5093A6054093A505819391939FCFED
:1034B000F0E0E0E09CCFCF93DF930097E9F0FC01D0
:1034C000329713821282A091A705B091A805ED0151
:1034D00030E020E01097A1F420813181820F931F0A
:1034E0002091A5053091A6052817390709F061C07C
:1034F000F093A605E093A505DF91CF910895EA0129
:10350000CE17DF07E8F54A815B819E014115510521
:10351000B1F7E901FB83EA8349915991C40FD51FA3
:10352000EC17FD0761F4808191810296840F951F4D
:10353000E90199838883828193819B838A83F0E068
:10354000E0E012968D919C9113970097B9F52D911B
:103550003C911197CD010296820F931F2091A505F2
:103560003091A6052817390739F6309751F5109292
:10357000A8051092A705B093A605A093A505BCCFFA
:10358000D383C28340815181840F951FC817D90707
:1035900061F44E5F5F4F88819981480F591F5183B5
:1035A00040838A819B81938382832115310509F0B1
:1035B000B0CFF093A805E093A7059ECFFD01DC01F5
:1035C000C0CF13821282D7CFB0E0A0E0EAEEFAE1DA
:1035D0000C941B188C01009751F4CB010E94BF1969
:1035E0008C01C801CDB7DEB7E0E10C943718FC01BF
:1035F000E60FF71F9C0122503109E217F30708F488
:103600009DC0D901CD91DC911197C617D70798F0CD
:10361000C530D10530F3CE0104978617970708F31C
:10362000C61BD70B2297C193D1936D937C93CF0187
:103630000E945B1AD6CF5B01AC1ABD0A4C018C0EFE
:103640009D1EA091A705B091A805512C412CF12CED
:10365000E12C109731F58091A5059091A60588156C
:10366000990509F05CC04616570608F058C08091CD
:10367000B7019091B801009741F48DB79EB7409182
:10368000BB015091BC01841B950BE817F90708F0AA
:1036900055C0F093A605E093A505F90171836083F9
:1036A000A0CF8D919C91119712966C9012971396C2
:1036B0007C901397A815B90559F56C0142E0C40E2A
:1036C000D11CCA14DB0420F1AC014A195B09DA01F0
:1036D0001296159780F06282738251834083D901DC
:1036E0006D937C93E114F10471F0D7011396FC9370
:1036F000EE93129776CF22968C0F9D1FF90191833E
:103700008083F301EFCFF093A805E093A70569CF7D
:103710004816590608F42C017D01D3019ACFCB013C
:103720000E94BF197C01009749F0AE01B8010E94C8
:10373000A11BC8010E945B1A870153CF10E000E073
:1037400050CFFB01DC0102C001900D92415050406E
:10375000D8F70895FB01DC018D91019080190110CB
:10376000D9F3990B0895FB01DC0101900D92002023
:10377000E1F7089510E0C3E6D0E004C0FE010E9426
:10378000B9192196C436D107C9F7F894FFCF0001C3
:103790000D111D111D0100010909151501000F1062
:1037A0001E101F001F0000021E17161E0200000040
:1037B000040A11001F00FF10070808080808070F77
:1037C000101F101F00041F040A1F000A0E0A0E0E0D
:1037D000110E041F00101F010002001F041B1F0414
:1037E0000E110E011D050505091101051D15171501
:1037F000151D050010040004000000000A0A000066
:10380000110E000000040A0A11150E04040A0A0A27
:1038100015150E000A0A00000A1500000A1F1F08ED
:10382000020A00000A1F1F02080A0000150E1B0EE4
:103830001500000000150E1B0E1500000000000012
:103840000000150B000000A90580000000400014D6
:10385000005400000000008E03E5021B03DB034C54
:10386000032A033E0300000000B8048B04CF056167
:1038700004840471046204000000000307E502CF21
:1038800005CE053A005B6D696E692D455D00576593
:103890006C636F6D6520746F2074686520736D6153
:1038A0007274206369747921005B6C6F6164696E66
:1038B000675D2000496E69742053637265656E0010
:1038C00020202056342E3000496E6974204750491C
:1038D0004F00496E69742044485431312F32320010
:1038E0005265616420444854313120646174610040
:1038F0007374617274206D61696E006E616E00692F
:103900006E66006F7666000D0A00202020202020C1
:1039100020202020202020202020004368616E638A
:1039200065206F6620736E6F772E20536565207358
:103930007461747573206261722E004368616E63F6
:1039400065206F66207261696E2E20536565207355
:103950007461747573206261722E004368696C6CC7
:103960007920746F6461792E2042756E646C6520D5
:10397000757021203A2800486967682074656D7069
:10398000657261747572652E20426577617265207B
:103990006F6620686561747374726F6B652E005476
:1039A0006865207765617468657220697320706C42
:1039B000656173616E742E2057656C636F6D652051
:1039C000746F2074686520536D617274204369744C
:1039D000792E00202D2D25002520202000737973BD
:1039E00074656D206572726F722120546865207352
:1039F000797374656D2077696C6C2072657374617E
:103A0000727420696E203435207365636F6E647341
:103A10002E0073797374656D005B455D007265738C
:103A200074617274004D6F64756C65204448543144
:103A3000312F3232204572726F7200444854313156
:103A40000053523034204572726F722E0053523040
:023A5000340040
:107E0000112484B714BE81FFF0D085E080938100F7
:107E100082E08093C00088E18093C10086E0809377
:107E2000C20080E18093C4008EE0C9D0259A86E02C
:107E300020E33CEF91E0309385002093840096BBD3
:107E4000B09BFECF1D9AA8958150A9F7CC24DD24C4
:107E500088248394B5E0AB2EA1E19A2EF3E0BF2EE7
:107E6000A2D0813461F49FD0082FAFD0023811F036
:107E7000013811F484E001C083E08DD089C08234E0
:107E800011F484E103C0853419F485E0A6D080C0E4
:107E9000853579F488D0E82EFF2485D0082F10E0AE
:107EA000102F00270E291F29000F111F8ED06801E7
:107EB0006FC0863521F484E090D080E0DECF843638
:107EC00009F040C070D06FD0082F6DD080E0C81688
:107ED00080E7D80618F4F601B7BEE895C0E0D1E017
:107EE00062D089930C17E1F7F0E0CF16F0E7DF06D8
:107EF00018F0F601B7BEE89568D007B600FCFDCFD4
:107F0000A601A0E0B1E02C9130E011968C91119780
:107F100090E0982F8827822B932B1296FA010C0160
:107F200087BEE89511244E5F5F4FF1E0A038BF0790
:107F300051F7F601A7BEE89507B600FCFDCF97BE46
:107F4000E89526C08437B1F42ED02DD0F82E2BD052
:107F50003CD0F601EF2C8F010F5F1F4F84911BD097
:107F6000EA94F801C1F70894C11CD11CFA94CF0C13
:107F7000D11C0EC0853739F428D08EE10CD085E9AC
:107F80000AD08FE07ACF813511F488E018D01DD067
:107F900080E101D065CF982F8091C00085FFFCCF94
:107FA0009093C60008958091C00087FFFCCF809118
:107FB000C00084FD01C0A8958091C6000895E0E648
:107FC000F0E098E1908380830895EDDF803219F02E
:107FD00088E0F5DFFFCF84E1DECF1F93182FE3DFCA
:107FE0001150E9F7F2DF1F91089580E0E8DFEE27F6
:047FF000FF270994CA
:027FFE00040479
:00000001FF
