:100000000C9463000C948B000C948B000C948B006C
:100010000C948B000C948B000C948B000C948B0034
:100020000C948B000C948B000C948B000C948B0024
:100030000C948B000C948B000C948B000C948B0014
:100040000C949B0A0C948B000C940B0B0C94E50AFB
:100050000C948B000C948B000C948B000C948B00F4
:100060000C943D0B0C948B00000000002400270032
:100070002A0000000000250028002B0000000008D6
:10008000000201000003040700000000000000005F
:1000900000000000230026002900040404040404D6
:1000A0000404020202020202030303030303010227
:1000B00004081020408001020408102001020408F6
:1000C0001020A10CB71311241FBECFEFD8E0DEBF64
:1000D000CDBF25E0ACE9B3E001C01D92A836B20760
:1000E000E1F713E0A0E0B1E0E2E3F1E302C0059044
:1000F0000D92AC39B107D9F710E0C2E6D0E004C0E8
:100100002197FE010E948B16C136D107C9F70E94C4
:10011000290D0C948C180C940000CF92DF92EF9272
:10012000FF92CF93DF93B0913305A0E08111AB2F05
:100130008091340590E0880F991FAC0140575F4FC4
:10014000C0903905D0903A05E0903B05F0903C0511
:1001500030E020E0FA01C591D491E881B90190E046
:1001600080E0EB23EA130AC02F5F3F4F6C157D053B
:100170008E059F0578F36FEF7FEFCB01DF91CF9175
:10018000FF90EF90DF90CF90089590E0FC01E4584D
:10019000FF4F2491FC01E255FF4F3491FC01E656DC
:1001A000FF4FE491EE23C9F0222339F0233001F10F
:1001B000A8F4213019F1223029F1F0E0EE0FFF1FF1
:1001C000EE58FF4FA591B4918FB7F894EC9161115F
:1001D00026C030953E233C938FBF08952730A9F069
:1001E0002830C9F0243049F7809180008F7D03C00A
:1001F000809180008F7780938000DFCF84B58F77E8
:1002000084BDDBCF84B58F7DFBCF8091B0008F772D
:100210008093B000D2CF8091B0008F7DF9CF3E2B7C
:10022000DACFCF93DF9390E0FC01E255FF4F2491AA
:1002300086569F4FFC0184918823C9F090E0880F77
:10024000991FFC01E859FF4FA591B491FC01EE58AC
:10025000FF4FC591D49161110DC09FB7F8948C9157
:10026000209582238C938881282328839FBFDF9148
:10027000CF910895623051F49FB7F8943C91822F4A
:10028000809583238C93E8812E2BEFCF8FB7F89442
:10029000EC912E2B2C938FBFEACF3FB7F89480912F
:1002A0007F0490918004A0918104B091820426B5CE
:1002B000A89B05C02F3F19F00196A11DB11D3FBF9E
:1002C000BA2FA92F982F8827BC01CD01620F711D6D
:1002D000811D911D42E0660F771F881F991F4A9567
:1002E000D1F708958F929F92AF92BF92CF92DF92F3
:1002F000EF92FF924B015C010E944D016B017C016A
:100300000E944D016C197D098E099F09683E73405A
:1003100081059105A8F321E0821A9108A108B1088E
:1003200088EEC80E83E0D81EE11CF11C81149104F4
:10033000A104B10429F7FF90EF90DF90CF90BF9018
:10034000AF909F908F9008952FB7F89460917B04A1
:1003500070917C0480917D0490917E042FBF08955C
:10036000CF92DF92EF92FF920F931F93CF93DF9381
:10037000CDB7DEB7C054D1400FB6F894DEBF0FBE84
:10038000CDBF0E94A4010091350510913605209142
:100390003705309138056B017C01C01AD10AE20A99
:1003A000F30A97018601003D17402105310590F4BD
:1003B00080913D05C05CDE4F0FB6F894DEBF0FBEE6
:1003C000CDBFDF91CF911F910F91FF90EF90DF9004
:1003D000CF90089560933505709336058093370567
:1003E000909338051092300510922F0510922E052B
:1003F00010922D0510922C0562E0809131050E942B
:10040000110161E070E080E090E00E94720161E023
:10041000809131050E94110160E0809131050E94B8
:10042000C500809132058551823020F58BE291E143
:100430000197F1F762E0809131050E9411018091EE
:100440003E0590E08230910538F0880F991F880FA3
:10045000991F05970197F1F7F89480E00E948D00AD
:100460006F3F7F4F8F4F9F4F61F410923D057894FF
:1004700080E0A0CF64E170E080E090E00E94720133
:10048000D9CF81E00E948D006F3F7F4F8F4F9F4FEC
:1004900061F38E010F5F1F4F6E012FEBC21A2EEF1B
:1004A000D20A780180E00E948D00F7016083718399
:1004B0008283938381E00E948D00F70164837583BA
:1004C00086839783F8E0EF0EF11CEC14FD0451F7DE
:1004D000789430E020E0F801C080D180E280F380A1
:1004E0004481558166817781FFEFCF16DF06EF06E5
:1004F000FF0631F04F3F8FEF58076807780719F470
:1005000010923D05B5CFF90183E0F595E7958A9501
:10051000E1F7E45DFA4F8081880FC416D506E60640
:10052000F70610F180832F5F3F4F085F1F4F28327F
:10053000310589F64091300520912C0580912D05DB
:10054000280F3327331F80912E05280F311D8091EE
:100550002F05820F932F911D99274817190681F6B1
:1005600081E080933D0526CF8160DCCF089508951A
:10057000AF92BF92CF92DF92EF92FF920F931F93B1
:10058000CF93DF936C017B018B01040F151FEB01EF
:100590005E01AE18BF08C017D10759F06991D601A6
:1005A000ED91FC910190F081E02DC6010995892B18
:1005B00079F7C501DF91CF911F910F91FF90EF90D7
:1005C000DF90CF90BF90AF900895FC01448155819A
:1005D000608171818FE395E00C94B802FC01538D2A
:1005E000448D252F30E0842F90E0821B930B54170D
:1005F00010F0CF96089501970895FC01918D828D9A
:10060000981761F0A28DAE0FBF2FB11D5D968C9132
:10061000928D9F5F9F73928F90E008958FEF9FEF71
:100620000895FC01918D828D981731F0828DE80F2D
:10063000F11D858D90E008958FEF9FEF0895FC01E7
:10064000918D228D892F90E0805C9F4F821B9109B4
:100650008F739927089583E894E00E941F0321E097
:10066000892B09F420E0822F089580E090E0892B07
:1006700029F00E942B0381110C9400000895FC01C5
:10068000A48DA80FB92FB11DA35ABF4F2C91848DF3
:1006900090E001968F739927848FA689B7892C9350
:1006A000A089B1898C91837080648C93938D848DA3
:1006B000981306C00288F389E02D80818F7D8083A6
:1006C0000895EF92FF920F931F93CF93DF93EC0166
:1006D00081E0888F9B8D8C8D98131AC0E889F989E9
:1006E000808185FF15C09FB7F894EE89FF896083EC
:1006F000E889F98980818370806480839FBF81E06D
:1007000090E0DF91CF911F910F91FF90EF900895AE
:10071000F62E0B8D10E00F5F1F4F0F731127E02E89
:100720008C8D8E110CC00FB607FCFACFE889F989C1
:10073000808185FFF5CFCE010E943F03F1CFEB8D85
:10074000EC0FFD2FF11DE35AFF4FF0829FB7F89495
:100750000B8FEA89FB8980818062CFCFCF93DF93B3
:10076000EC01888D8823B9F0AA89BB89E889F989C9
:100770008C9185FD03C0808186FD0DC00FB607FCFE
:10078000F7CF8C9185FFF2CF808185FFEDCFCE0131
:100790000E943F03E9CFDF91CF9108952091080493
:1007A000260F3327331F21323105ECF420912C041E
:1007B000FC0190E080E0243069F082E00895A0918F
:1007C00008042191AC0148515C4FA40FB52FB11D15
:1007D0002C930196861798F380910804680F609314
:1007E000080480E0089581E0089510922C0481E0CF
:1007F00080932E0410922D0461E082E10E94C500D6
:1008000061E083E10E94C500E9EBF0E080818E7F2A
:10081000808380818D7F808388E48093B80085E425
:100820008093BC000895CF93DF9391E09093E7030A
:100830008823B9F0C091B800D091BA008091BC0073
:100840008A7B8093BC0060E082E10E94C50060E08A
:1008500083E10E94C5000E94F503D093BA00C093C3
:10086000B800DF91CF9108950895E09159048091E7
:100870005804E81730F4F0E0EE53FC4F808190E02C
:1008800008958FEF9FEF0895909159048091580437
:100890002FEF3FEF981748F4E92FF0E0EE53FC4FAD
:1008A000208130E09F5F90935904C90108958091A1
:1008B000580490915904891B990B0895CF92DF92A7
:1008C000EF92FF920F931F93CF93DF937C01CB01A5
:1008D0008A012091C103222389F0EB016B01C40E30
:1008E000D51ECC15DD0569F06991D701ED91FC911C
:1008F0000190F081E02DC7010995F3CF642F0E948C
:10090000CE03C801DF91CF911F910F91FF90EF901F
:10091000DF90CF900895CF93DF931F92CDB7DEB7CE
:1009200069832091C1032223F9F0209156042032DB
:1009300058F021E030E0FC013383228390E080E036
:100940000F90DF91CF91089580915704E82FF0E048
:10095000EF55FC4F998190838F5F8093570480936C
:10096000560481E090E0ECCF61E0CE0101960E9458
:10097000CE03F7CFCF92DF92EF92FF920F931F93A8
:10098000CF93DF93FC01C48121E02093C103C09386
:10099000A00310925704109256048485682B80E2BD
:1009A00095E00E948B04D0915604D13208F092C099
:1009B0000E944D016B017C0180912C04811165C066
:1009C00082E080932C0481E080932E048FEF80934B
:1009D0002B0410925004D0934F04A1EAB3E0EFE24D
:1009E000F4E080E0D81385C0109251048091510446
:1009F000CC0FC82BC093510480912D04813009F095
:100A00007CC010922D040E944D016B017C018091ED
:100A100051048093BB008091E3039091E403A09183
:100A2000E503B091E603892B8A2B8B2B99F00E946A
:100A30004D010091E3031091E4032091E50330910F
:100A4000E6036C197D098E099F0906171707280709
:100A50003907E0F18091BC0083FDD9CF85EC80930C
:100A6000BC000E944D016B017C0180912C048230FE
:100A700009F445C080912B048F3F61F180912B04D4
:100A8000803241F180912B0425C08091E303909145
:100A9000E403A091E503B091E603892B8A2B8B2B0D
:100AA00009F48ACF0E944D010091E3031091E40301
:100AB0002091E5033091E6036C197D098E099F09A9
:100AC000061717072807390708F076CF8091E20349
:100AD0000E94130410925704109256041092C103FE
:100AE000DF91CF911F910F91FF90EF90DF90CF900A
:100AF00008959D9191938F5F75CF85EEB0CF8091D2
:100B0000E3039091E403A091E503B091E603892B00
:100B10008A2B8B2B09F4A9CF0E944D010091E3038E
:100B20001091E4032091E5033091E6036C197D09EF
:100B30008E099F09061717072807390708F095CF70
:100B4000C5CF089590E080E00895CF92DF92EF92B4
:100B5000FF92CF930E94B001882349F08091320523
:100B60008B3028F08D3040F085518230D0F160E03C
:100B700070E080EC9FE71CC060912D0570E090E074
:100B800080E00E94CE132DEC3CEC4CEC5DE30E9427
:100B90002D146B017C0160912C0570E090E080E0E9
:100BA0000E94CE139B01AC01C701B6010E94231520
:100BB00060936E0470936F0480937004909371043B
:100BC0000E94B001882341F0809132058C3009F4F5
:100BD00069C0C8F48B3081F160E070E080EC9FE781
:100BE00053C060912C0570912D05762767277627D5
:100BF00090E080E00E94CC132DEC3CEC4CEC5DE3EB
:100C00000E942D14D5CF8551823030F7C0912E052A
:100C10006C2F70E0762F662766277F7780912F05EF
:100C2000682B90E080E00E94CC132DEC3CEC4CEC67
:100C30005DE30E942D1452C060912E0570E090E09B
:100C400080E00E94CC136B017C01C0912F05C7FF8F
:100C50000AC0AC019B0160E070E080E89FEB0E945D
:100C600022156B017C01CF706C2F70E090E080E06A
:100C70000E94CE132DEC3CEC4CEC5DE30E942D1455
:100C8000A70196010E94231560936A0470936B0478
:100C900080936C0490936D04CF91FF90EF90DF9060
:100CA000CF900895C0912E056C2F70E090E080E009
:100CB0000E94CC136B017C0160912F056F7070E076
:100CC00090E080E00E94CE132DEC3CEC4CEC5DE318
:100CD0000E942D14A70196010E942315C7FFD4CFAF
:100CE0009058D2CF0F931F93CF938C01C62F0E94A1
:100CF000BA046C2F6460C8010E94BA046C2F6B7F29
:100D0000C8010E94BA0483EC90E00197F1F7CF91FB
:100D10001F910F9108950F931F93CF93DF938C0131
:100D2000D62FC42F607F642B0E94720680E1D89F6B
:100D3000B00111246C2BC801DF91CF911F910F914D
:100D40000C947206CF93DF93CDB7DEB728970FB61A
:100D5000F894DEBF0FBECDBF98E0E8E9F1E0DE0118
:100D6000119601900D929A95E1F79091470596178B
:100D700008F46FEF262F30E0220F331F41E050E0E0
:100D80004C0F5D1F240F351FF9016081680F6068EB
:100D900040E08FE395E028960FB6F894DEBF0FBED3
:100DA000CDBFDF91CF910C948B0641E00E948B0662
:100DB00081E090E0089540E061E08FE395E00E94DB
:100DC0008B068BE39FE10197F1F78091480588231B
:100DD00021F060E080E00C94A20608950F931F9329
:100DE000CF93DF938B0198E0899FB0011124606459
:100DF00040E08FE395E00E948B06E801085F1F4FFB
:100E000069918FE395E00E94D506C017D107C1F71D
:100E1000DF91CF911F910F910895FB010190002068
:100E2000E9F73197AF01461B570BDC01ED91FC91BF
:100E30000280F381E02D09948F929F92AF92BF922E
:100E4000EF92FF920F931F93CF93DF93CDB7DEB74F
:100E5000A1970FB6F894DEBF0FBECDBF7C01FA019B
:100E6000CB0119A2223008F42AE08E010F5D1F4F3A
:100E7000822E912CB12CA12CBF01A50194010E94BE
:100E80005516F901CA016A300CF5605DD8016E9300
:100E90008D01232B242B252B79F790E080E01097F0
:100EA00021F0BD01C7010E940D07A1960FB6F8946D
:100EB000DEBF0FBECDBFDF91CF911F910F91FF908D
:100EC000EF90BF90AF909F908F900895695CDECFB8
:100ED000CF92DF92EF92FF926C01990FEE08FF081C
:100EE000F7FE18C041E06DE28FE395E00E948B06AB
:100EF00044275527BA014C195D096E097F092AE07C
:100F00008FE395E00E941C070196FF90EF90DF9021
:100F1000CF9008952AE0B701A6018FE395E0FF90F6
:100F2000EF90DF90CF900C941C070C940D0760E0BD
:100F300080E00E94A20660E08FE395E00E94D50663
:100F400062E08FE395E00E94D50660ED71E08FE3EB
:100F500095E00E94950760916A0470916B048091FE
:100F60006C0490916D040E940116CB010E946807E9
:100F700063E08FE395E00E94D5066DED71E08FE3AD
:100F800095E00E94950760E087E00E94A20661E07C
:100F90008FE395E00E94D50662E08FE395E00E9422
:100FA000D50660ED71E08FE395E00E9495076091B2
:100FB0006E0470916F0480917004909171040E948E
:100FC0000116CB010E9468076FE173E08FE395E0A3
:100FD0000E94950760916E0470916F048091700477
:100FE000909171040E9401166436710534F46DED20
:100FF00071E08FE395E00C94950708950F931F938C
:10100000CF93DF93EC0188819981009759F02A8171
:101010003B812617370730F081E0DF91CF911F9198
:101020000F9108958B016F5F7F4F0E94B617009755
:1010300059F0998388831B830A832C813D81232B5C
:1010400059F7FC011082E8CF80E0E7CFCF93DF9320
:10105000EC0188819981009711F00E942D17198267
:1010600018821D821C821B821A82DF91CF91089503
:10107000EF92FF920F931F93CF93DF93EC017B01CD
:101080008A01BA010E94FE0781110BC0CE010E94A5
:101090002608CE01DF91CF911F910F91FF90EF9025
:1010A00008951D830C83B701888199810E9485185A
:1010B000F0CFFB0101900020E9F73197AF01461B0B
:1010C000570B0C943808CF93DF93EC01FB01861784
:1010D000970749F0608171816115710541F0448184
:1010E00055810E943808CE01DF91CF9108950E946A
:1010F0002608F9CFFC011182108213821282158218
:101100001482FB0101900020E9F73197AF01461BE3
:10111000570B0C943808FC0180819181009711F0E5
:101120000C942D17089585ED8093BC008091E30306
:101130009091E403A091E503B091E6030796A11D09
:10114000B11D23E0B695A795979587952A95D1F778
:101150002091BC0024FD03C010922C0408954091FE
:10116000E3035091E4036091E5037091E603452B9E
:10117000462B472B69F30097A105B10541F02AE200
:101180002A95F1F700C00197A109B109E1CF80913B
:10119000E2030C941304AF92BF92CF92DF92EF92CE
:1011A000FF920F931F93CF93DF93CDB7DEB72C97AA
:1011B0000FB6F894DEBF0FBECDBF0E94A401009110
:1011C0009C0310919D0320919E0330919F03601B0F
:1011D000710B820B930B6C3271408105910508F401
:1011E0000BC162ED71E0CE0101960E947A08E09099
:1011F0004C05F0904D05E114F10409F4ABC00091E9
:1012000050051091510501151105B9F08D819E8190
:10121000080F191FB801CE0101960E94FE0788230E
:1012200009F498C029813A818D819E81B701820F8E
:10123000931F0E9485181E830D830D811E810F5FF1
:101240001F4FB801CE0101960E94FE07811187C091
:10125000CE0101960E94260818861F821A861986DA
:101260001C861B86BE016F5F7F4FCE0107960E94D2
:101270006308CE0101960E948B08EB84FC8461E038
:1012800080E00E94A20600915A0410915B04C09075
:101290009001D0909101C00ED11EC016D10628F049
:1012A0009C2D8D2D6801092F182F1A8219821C82FE
:1012B0001B821E821D8250E040E063E672E0CE0198
:1012C00001960E943808AB84BC84CA14DB04E0F4A5
:1012D0000A151B0508F45801EF81F885EA0DFB1D7E
:1012E000108110826F8178856C0D7D1DCE01019675
:1012F0006115710509F440C00E9459088F819885D5
:10130000A80EB91EF5011083CE0101960E94E502D8
:10131000CE0101960E948B082091620530916305F1
:10132000809150059091510528173907C1F580919A
:101330005E0590915F0560914C0570914D05009799
:1013400009F161157105D9F4232BE1F1FC018081CC
:1013500090E023C0CE0101960E9426086ECF29811D
:101360003A818D819E816DED71E0820F931F0E9405
:1013700085181E830D8370CF0E942608BFCF0E9460
:101380007C180BC061157105E9F0232BD9F0FB0126
:10139000808190E0919581959109892B99F0209118
:1013A0005A0430915B04C70101972817390754F09C
:1013B00010925B0410925A046EE575E08CE495E09F
:1013C0000E94630880915A0490915B040196B701D2
:1013D0000E94411690935B0480935A040E94A401DA
:1013E00060939C0370939D0380939E0390939F034F
:1013F000CE0107960E948B082C960FB6F894DEBF9C
:101400000FBECDBFDF91CF911F910F91FF90EF9055
:10141000DF90CF90BF90AF9008958F929F92AF9240
:10142000BF92CF92DF92EF92FF92CF93DF930E9411
:10143000DB0660E080E00E94A20680E190E09093ED
:101440009101809390016FED71E08FE395E00E9430
:10145000950782E595E00E94E5020E94A4016B01D8
:101460007C0110925B0410925A0468E575E08EE5E9
:1014700095E00E94630868E575E08CE495E00E94C1
:1014800063080E94A4018090640490906504A09079
:101490006604B09067046C197D098E099F090E944B
:1014A000CC13A50194010E94C713181654F10E9491
:1014B000A4016C197D098E099F090E94CC139B0120
:1014C000AC01C501B4010E94221520E030E04AE7DA
:1014D00054E40E948F150E9401164B01EB0160E05D
:1014E0008EE00E94A2062A9734F46DED71E08FE33E
:1014F00095E00E949507C4010E9468070E94CB08EE
:10150000C0CF8BE090E0909391018093900161E0D7
:101510008AE00E94A20669ED71E08FE395E0DF9119
:10152000CF91FF90EF90DF90CF90BF90AF909F90C2
:101530008F900C9495071F920F920FB60F92112463
:101540002F933F938F939F93AF93BF9380917B048F
:1015500090917C04A0917D04B0917E0430917A0436
:1015600023E0230F2D3758F50196A11DB11D2093BF
:101570007A0480937B0490937C04A0937D04B093C1
:101580007E0480917F0490918004A0918104B091A9
:1015900082040196A11DB11D80937F049093800465
:1015A000A0938104B0938204BF91AF919F918F91DA
:1015B0003F912F910F900FBE0F901F90189526E826
:1015C000230F0296A11DB11DD2CF1F920F920FB60D
:1015D0000F9211242F933F934F935F936F937F93B9
:1015E0008F939F93AF93BF93EF93FF9383E894E020
:1015F0000E943F03FF91EF91BF91AF919F918F9117
:101600007F916F915F914F913F912F910F900FBEFE
:101610000F901F9018951F920F920FB60F921124E2
:101620002F938F939F93EF93FF93E0919304F09107
:1016300094048081E0919904F0919A0482FD1BC08A
:10164000908180919C048F5F8F7320919D048217FD
:1016500041F0E0919C04F0E0ED57FB4F958F8093B3
:101660009C04FF91EF919F918F912F910F900FBE4E
:101670000F901F9018958081F4CF1F920F920FB694
:101680000F9211242F933F934F935F936F937F9308
:101690008F939F93AF93BF93EF93FF938091B90084
:1016A000887F803609F44AC0F0F5883209F4A7C073
:1016B00018F5803109F49BC0B8F4882309F4F9C007
:1016C000883009F494C0FF91EF91BF91AF919F9141
:1016D0008F917F916F915F914F913F912F910F90DB
:1016E0000FBE0F901F901895883109F488C0803282
:1016F00051F780932B0414C0803409F49DC040F44A
:101700008033B9F38833F9F680932B0485ECB0C0AD
:10171000803509F485C0883509F496C0883499F677
:101720000E949308D0CF883909F48CC038F58837E7
:1017300029F050F4883611F0803729F683E0809341
:101740002C0410922A0457C0883809F47BC08039D1
:1017500019F0803809F0B7CF80912A04803208F060
:1017600071C0E0912A0481E08E0F80932A04809159
:10177000BB00F0E0E65FFB4F80833DC0803B39F06B
:10178000E0F4803A09F479C0883A09F09CCF84E00B
:1017900080932C041092090410920804E0915404E0
:1017A000F091550409958091080481110FC081E0E2
:1017B000809308041092E80309C0803C09F4A6CF86
:1017C000883C09F4A3CF883B09F07DCFE091090460
:1017D00081E08E0F80930904F0E0E851FC4F808196
:1017E0008093BB00909109048091080429C08091E6
:1017F00051048093BB0085EC8093BC0064CF909132
:10180000500480914F04981758F5E091500481E0FE
:101810008E0F80935004F0E0E15DFB4F8081E9CFB3
:10182000E091500481E08E0F809350048091BB00C2
:10183000F0E0E15DFB4F80839091500480914F0474
:101840009817C8F285E8D8CFE091500481E08E0F58
:10185000809350048091BB00F0E0E15DFB4F8083FA
:1018600080912E0481115CCF81E080932D0484EA65
:101870008093BC0010922C0426CF85EC8093BC0092
:1018800010922C0480912A04803230F4E0912A04D2
:10189000F0E0E65FFB4F108260912A0470E0E09177
:1018A0005204F09153048AE094E0099510922A04BE
:1018B0000ACF10922B0434CFCF92DF92EF92FF9297
:1018C0000F931F93E82FF92F05C00150110921092B
:1018D000310961F1908196239417B9F305C0015045
:1018E00011092109310911F1908196239413F7CF41
:1018F000C12CD12CE12CF12C0AC08FEFC81AD80AC8
:10190000E80AF80A0C151D052E053F0579F08081BF
:101910008623841791F36C2D7D2D8E2D9F2D1F9185
:101920000F91FF90EF90DF90CF90089560E070E00E
:1019300080E090E01F910F91FF90EF90DF90CF90AB
:101940000895E3E8F4E01382128288EE93E0A0E0C9
:10195000B0E084839583A683B78324EA31E03183A2
:10196000208325EC30E03587248724EC30E037876E
:10197000268720EC30E0318B208B21EC30E0338B5C
:10198000228B22EC30E0358B248B26EC30E0378B39
:10199000268B118E128E138E148EE0E2F5E01382E8
:1019A000128284839583A683B78386EB91E091832B
:1019B000808368EE71E08EE595E00E947A0863E628
:1019C00072E088E595E00E947A0863E672E082E5BD
:1019D00095E00E947A08ECE4F5E01182108213820F
:1019E0001282158214826EE575E0CF010E946308B1
:1019F000EFE3F5E01382128288EC91E0918380831B
:101A0000118687E2848380E1828782E0838714865F
:101A1000ACE2B5E08EE015968C9315978BE01696A8
:101A20008C931697ECEBF0E0E4911796EC931797F4
:101A3000E8EAF0E0E4911896EC93189740E85EE34A
:101A400060E070E01D964D935D936D937C9350978D
:101A50000895789484B5826084BD84B5816084BD26
:101A600085B5826085BD85B5816085BD80916E003C
:101A7000816080936E00109281008091810082606D
:101A800080938100809181008160809381008091AA
:101A900080008160809380008091B1008460809399
:101AA000B1008091B00081608093B00080917A0095
:101AB000846080937A0080917A00826080937A00BB
:101AC00080917A00816080937A0080917A008068AA
:101AD00080937A001092C100E0919304F0919404F5
:101AE00082E08083E0918F04F09190041082E09175
:101AF0009104F09192048FEC808310929B04E0910A
:101B00009704F091980486E08083E0919504F09129
:101B10009604808180618083E0919504F091960421
:101B2000808188608083E0919504F09196048081A3
:101B300080688083E0919504F091960480818F7D88
:101B4000808363E072E083E894E00E9495070FB61B
:101B5000F894A8958091600088618093600010924D
:101B600060000FBE1092590410925804109257044E
:101B7000109256040E94F50386EB92E09093550470
:101B80008093540487EB92E0909353048093520423
:101B90001092440580914A05823018F098E09093A5
:101BA00044058093470562E370E080E090E00E9486
:101BB000720160914B058FE395E00E94BA0468EED4
:101BC00073E080E090E00E94720160E38FE395E0B3
:101BD0000E947206CBE4D6E4CE010197F1F760E3F0
:101BE0008FE395E00E9472062197F1F760E38FE39F
:101BF00095E00E94720683E592E00197F1F760E2BA
:101C00008FE395E00E94720660914405606240E0B7
:101C10008FE395E00E948B0684E08093450540E0C9
:101C20006CE08FE395E00E948B060E94DB0682E069
:101C30008093460540E066E08FE395E00E948B06C6
:101C400040E062E08FE395E00E948B068BE39FE12A
:101C50000197F1F70E94DB0661E080E00E94A20696
:101C60006EE072E08FE395E00E949507C8E0C093B4
:101C70004B0560E08FE395E00E94BA0460E471E0F8
:101C800080E00E94EE0668E371E081E00E94EE06CB
:101C900060E371E082E00E94EE0668E271E083E0BA
:101CA0000E94EE0660E271E084E00E94EE0668E8C1
:101CB00071E085E00E94EE0660E082E00E94A206EC
:101CC00060E08FE395E00E94D50661E08FE395E048
:101CD0000E94D50662E08FE395E00E94D5066DED87
:101CE00071E08FE395E00E94950763E08FE395E054
:101CF0000E94D50664E08FE395E00E94D5066AE174
:101D000072E08FE395E00E94950761E080E00E9419
:101D1000A20662E272E08FE395E00E94950765E01B
:101D20008FE395E00E94D50664ED71E08FE395E0C6
:101D30000E94950761E08DE00E94110161E088E05A
:101D40000E94110161E087E00E94110161E086E0DC
:101D50000E94110161E084E00E94110160E083E0D3
:101D60000E94110161E080E00E94A2066CE272E034
:101D70008FE395E00E94950765E08FE395E00E9470
:101D8000D50664ED71E08FE395E00E94950762E06F
:101D9000809131050E9411010E94A401605D77408D
:101DA0008109910960933505709336058093370555
:101DB0009093380587E380933E0561E080E00E94C0
:101DC000A2066AE372E08FE395E00E94950765E062
:101DD0008FE395E00E94D50664ED71E08FE395E016
:101DE0000E94950760ED77E080E090E00E9472012C
:101DF0000E94A50561E080E00E94A2066AE472E00C
:101E00008FE395E00E94950764ED71E08FE395E024
:101E10000E94950768E871E080E00E94EE0660E0AD
:101E20008FE395E00E94D5060E94DB0610924B05D9
:101E300060E08FE395E00E94BA046AE070E080E021
:101E400090E00E947201C0934B0560E08FE395E043
:101E50000E94BA0468E171E080E00E94EE0660E151
:101E600071E081E00E94EE0668E071E082E00E948D
:101E7000EE0660E071E083E00E94EE060E949707A4
:101E80000E94A4010E94CC1360937604709377049F
:101E900080937804909379040E94A40160935E0477
:101EA00070935F04809360049093610433E2232E67
:101EB000312CC0E0D0E060E084E00E94C50083E007
:101EC00090E00197F1F761E084E00E94C500C10154
:101ED0000197F1F760E084E00E94C500E1EBF0E0DB
:101EE0006491EDE9F0E08491E82FF0E0EE0FFF1F40
:101EF000E057FF4F8591949100E315E720E030E033
:101F0000462F0E945C0C611571058105910559F001
:101F10006F5F7F4F8F4F9F4F9F70611571058105D8
:101F2000910509F086C28091620490916304019644
:101F30009093630480936204C12CD12C90E8E92E25
:101F40009FEBF92E0E94A4010E94CC1320917604ED
:101F50003091770440917804509179040E942215C1
:101F600020E030E04AE754E40E94371687FD3BC08A
:101F7000A7019601C701B6010E943C1665E572E013
:101F800081111BC046015701E894B7F82FEF3FEFCE
:101F90004FE75FE7C501B4010E943C1681115EC2A4
:101FA0002FEF3FEF4FE75FE7C501B4010E94C71372
:101FB00018160CF053C269E572E083E894E00E94C1
:101FC0000D0761E672E083E894E00E940D070E942D
:101FD000A4010E94CC1360937604709377048093DD
:101FE00078049093790420E030E040E251E4C701A6
:101FF000B6010E94C71318165CF020E030E040E8FC
:102000005FEBC701B6010E94C71361E0811101C0F7
:1020100060E08DE00E94C5000E94A50580906E04DE
:1020200090906F04A0907004B090710420E030E0B4
:1020300040EA52E4C501B4010E943716C0906A0418
:10204000D0906B04E0906C04F0906D0487FDB9C2F1
:1020500020E030E040E050ECC701B6010E94C71319
:1020600018160CF47CC220E030E040EA52E4C501CE
:10207000B4010E94221520E030E040EA51E40E94C1
:102080008F156B017C010E94A40128EE33E040E033
:1020900050E00E945516643F71408105910508F497
:1020A0005BC260E871E084E00E94EE0664E672E0E4
:1020B0008EE595E00E94590860E08EE00E94A2063D
:1020C00020E030EC49E754E4C501B4010E94C71395
:1020D000181634F06DED71E08FE395E00E949507DE
:1020E00064E08FE395E00E94D5066AED71E08FE32E
:1020F00095E00E94950761E08CE00E94A20620E036
:1021000030E04AE754ECC701B6010E94C7136CE106
:1021100073E0882329F120E030E040E151E4C70179
:10212000B6010E94C7136CED71E0181664F420E04C
:1021300030E046EC52E4C701B6010E94C7131816FE
:1021400034F06DED71E08FE395E00E949507C701D3
:10215000B6010E940116CB010E94680761E273E09C
:102160008FE395E00E9495070E9497070E94CB0895
:102170000E94A40128E93AE340E050E00E9455168D
:102180000E94CC136B017C0120E030E64AEE55E45E
:102190000E94C71318160CF45AC260E086E00E9431
:1021A000C50060E087E00E94C50061E088E00E9411
:1021B000C5000E94A401C0907204D0907304E09006
:1021C0007404F09075046C197D098E099F09683EAE
:1021D00073408105910508F465C00E94A4016093D5
:1021E00072047093730480937404909375048090C8
:1021F0006E0490906F04A0907004B0907104A501DB
:102200009401C501B4010E943C16811122C0C09006
:102210006A04D0906B04E0906C04F0906D04A70108
:102220009601C701B6010E943C16811112C020E040
:1022300030E0A901C501B4010E94C713811155C244
:1022400020E030E0A901C701B6010E94C713811147
:102250004CC280916804909169040196909369043E
:102260008093680480916804909169040597D4F084
:1022700066E273E088E595E00E9459086CE373E03C
:1022800082E595E00E94590880E090E4ACE1B6E474
:102290008093640490936504A0936604B0936704EC
:1022A0000E940D0A80916204909163040597D4F016
:1022B00062E473E088E595E00E9459086EE473E0FB
:1022C00082E595E00E94590880E090E4ACE1B6E434
:1022D0008093640490936504A0936604B0936704AC
:1022E0000E940D0A0E94A401C0905E04D0905F0479
:1022F000E0906004F09061046C197D098E099F09DB
:10230000643671058105910508F4F4C180915C047F
:1023100090915D04019690935D0480935C0480919C
:102320005C0490915D0405970CF40CC263E573E0C6
:1023300088E595E00E94590868E873E082E595E039
:102340000E94590880E098ECAFE2B7E480936404FF
:1023500090936504A0936604B09367040E94DB0623
:1023600060E080E00E94A20680E190E090939101FD
:10237000809390016FE873E08FE395E00E949507EA
:1023800082E595E00E94E5020E94A4016B017C01B8
:1023900010925B0410925A0468E575E08EE595E0B2
:1023A0000E94630868E575E08CE495E00E9463088C
:1023B0000E94A4018090640490906504A09066043B
:1023C000B09067046C197D098E099F090E94CC1397
:1023D000A50194010E94C71318160CF490C10E9425
:1023E000A4016C197D098E099F090E94CC139B01E1
:1023F000AC01C501B4010E94221520E030E04AE79B
:1024000054E40E948F150E9401164B01EB0160E01D
:102410008EE00E94A2062A9734F46DED71E08FE3FE
:1024200095E00E949507C4010E9468070E94CB08AE
:10243000BFCF10926304109262040E94CE1326E96B
:1024400033E44BE05DE30E942D1420E030E040E0F7
:102450005FE30E942D146B017C0174CD2FEF3FEFE1
:102460004FE75FE4C701B6010E94371618161CF447
:102470006DE572E0A2CD2FEF3FEF4FE75FECC701B4
:10248000B6010E94C71387FDF3CF20E030E0A90119
:10249000C701B6010E94C71387FF5BC06DE283E8E6
:1024A00094E00E946103C701B60190582AE037ED1D
:1024B00043EA5BE30E9423152B013C010E940816AE
:1024C0004B015C010E94CC139B01AC01C301B20122
:1024D0000E9422152B013C012AE0B501A40183E8EA
:1024E00094E00E941C076EE283E894E00E9461037E
:1024F00020E030E040E251E4C301B2010E942D141B
:102500002B013C010E9408164B01B12CA12C2AE0A2
:10251000B501A40183E894E00E941C07C501B40141
:102520000E94CC139B01AC01C301B2010E94221591
:1025300020E030E040E251E40E942D140E94081691
:10254000AB0170E060E02AE083E894E00E941C07A1
:1025500038CDC701B601AACF68E771E0A4CD20E06D
:1025600030E040EF51E4C701B6010E94C7131816CE
:1025700044F120E030E040EA52E4C501B4010E9499
:10258000221520E030E040EA51E40E948F156B01F3
:102590007C010E94A40128EE33E040E050E00E945C
:1025A0005516643F71408105910540F060E771E088
:1025B00084E00E94EE0664E872E07ACD68E671E09D
:1025C000F7CF20E030E040EA51E4C701B6010E94B5
:1025D000C71387FF12C060E671E084E00E94EE0638
:1025E00064EA72E08EE595E00E945908C12CD12C76
:1025F0008AE7E82E84ECF82E5FCD20E030E040ED55
:1026000051E4C701B6010E9437161816C4F40E949F
:10261000A40128EE33E040E050E00E945516643FEC
:1026200071408105910540F068E571E084E00E9409
:10263000EE0660EC72E0D6CF60E571E0F7CF68E4BB
:1026400071E084E00E94EE0668EE72E0CBCF20E0FD
:1026500030E04AEF55E4C701B6010E94C7131816CF
:1026600054F060E086E00E94C50061E087E00E94CF
:10267000C50060E09BCD20E030ED44E056E4C701AA
:10268000B6010E94C713181634F060E086E00E947D
:10269000C50060E0EBCF20E030EA4CE056E4C70133
:1026A000B6010E94C7131816E4F620E030E744E1B3
:1026B00056E4C701B6010E94C713181634F720E08C
:1026C00030E44CE156E4C701B6010E94C713181666
:1026D00044F620E030E144E256E4C701B6010E942E
:1026E000C713181694F661E0D1CF109269041092C6
:1026F0006804B8CD10925D0410925C0410CE68E8B6
:1027000071E087E00E94EE060E94DB0660E080E058
:102710000E94A20663E973E08FE395E00E949507AB
:1027200067E08FE395E00E94D50688E199E00FB657
:10273000F894A895809360000FBE909360000E946B
:10274000DB06FFCF0E94A40160935E0470935F04D8
:102750008093600490936104209709F4ACCB0E94AD
:102760002B03882309F4A7CB0E940000A4CB8CE4A0
:1027700095E00E948B0882E595E00E948B0888E531
:1027800095E00E948B088EE595E00C948B080E94E2
:10279000091408F481E00895E89409C097FB3EF419
:1027A00090958095709561957F4F8F4F9F4F99239E
:1027B000A9F0F92F96E9BB279395F695879577951C
:1027C0006795B795F111F8CFFAF4BB0F11F460FFDC
:1027D0001BC06F5F7F4F8F4F9F4F16C0882311F034
:1027E00096E911C0772321F09EE8872F762F05C048
:1027F000662371F096E8862F70E060E02AF09A95E3
:10280000660F771F881FDAF7880F9695879597F9D7
:102810000895990F0008550FAA0BE0E8FEEF161671
:102820001706E807F907C0F012161306E407F507C4
:1028300098F0621B730B840B950B39F40A2661F038
:10284000232B242B252B21F408950A2609F4A140DB
:10285000A6958FEF811D811D08950E9440140C9450
:10286000B1140E94A31438F00E94AA1420F09523FA
:1028700011F00C949A140C94A01411240C94E514E7
:102880000E94C21470F3959FC1F3950F50E0551F3D
:10289000629FF001729FBB27F00DB11D639FAA27B5
:1028A000F00DB11DAA1F649F6627B00DA11D661F04
:1028B000829F2227B00DA11D621F739FB00DA11D25
:1028C000621F839FA00D611D221F749F3327A00DDF
:1028D000611D231F849F600D211D822F762F6A2F7B
:1028E00011249F5750409AF0F1F088234AF0EE0FE0
:1028F000FF1FBB1F661F771F881F91505040A9F70D
:102900009E3F510580F00C949A140C94E5145F3F9F
:10291000E4F3983ED4F3869577956795B795F79548
:10292000E7959F5FC1F7FE2B880F911D96958795C0
:1029300097F9089597F99F6780E870E060E008953F
:102940009FEF80EC089500240A94161617061806C7
:102950000906089500240A941216130614060506A3
:102960000895092E0394000C11F4882352F0BB0F34
:1029700040F4BF2B11F460FF04C06F5F7F4F8F4F97
:102980009F4F089557FD9058440F551F59F05F3FD2
:1029900071F04795880F97FB991F61F09F3F79F081
:1029A00087950895121613061406551FF2CF469503
:1029B000F1DF08C0161617061806991FF1CF869585
:1029C0007105610508940895E894BB276627772769
:1029D000CB0197F908952F923F924F925F926F9299
:1029E0007F928F929F92AF92BF92CF92DF92EF929F
:1029F000FF920F931F93CF93DF93CDB7DEB7CA1B20
:102A0000DB0B0FB6F894DEBF0FBECDBF09942A884A
:102A1000398848885F846E847D848C849B84AA84F2
:102A2000B984C884DF80EE80FD800C811B81AA817F
:102A3000B981CE0FD11D0FB6F894DEBF0FBECDBF4A
:102A4000ED0108955058BB27AA270E943A150C940F
:102A5000B1140E94A31438F00E94AA1420F039F493
:102A60009F3F19F426F40C94A0140EF4E095E7FBB4
:102A70000C949A14E92F0E94C21458F3BA176207F3
:102A800073078407950720F079F4A6F50C94E414F5
:102A90000EF4E0950B2EBA2FA02D0B01B901900179
:102AA0000C01CA01A0011124FF27591B99F0593FBD
:102AB00050F4503E68F11A16F040A22F232F342F05
:102AC0004427585FF3CF469537952795A795F04053
:102AD0005395C9F77EF41F16BA0B620B730B840B68
:102AE000BAF09150A1F0FF0FBB1F661F771F881F20
:102AF000C2F70EC0BA0F621F731F841F48F4879578
:102B000077956795B795F7959E3F08F0B0CF939569
:102B1000880F08F09927EE0F9795879508950E94E2
:102B2000A3150C94B1140E94AA1458F00E94A31487
:102B300040F029F45F3F29F00C949A1451110C9441
:102B4000E5140C94A0140E94C21468F39923B1F305
:102B5000552391F3951B550BBB27AA2762177307C3
:102B6000840738F09F5F5F4F220F331F441FAA1F57
:102B7000A9F335D00E2E3AF0E0E832D09150504013
:102B8000E695001CCAF72BD0FE2F29D0660F771FC1
:102B9000881FBB1F261737074807AB07B0E809F0A7
:102BA000BB0B802DBF01FF2793585F4F3AF09E3F2C
:102BB000510578F00C949A140C94E5145F3FE4F3FB
:102BC000983ED4F3869577956795B795F7959F5F6F
:102BD000C9F7880F911D9695879597F90895E1E0BB
:102BE000660F771F881FBB1F621773078407BA071A
:102BF00020F0621B730B840BBA0BEE1F88F7E09575
:102C000008950E9408166894B1110C94E514089573
:102C10000E94CA1488F09F5798F0B92F9927B7518E
:102C2000B0F0E1F0660F771F881F991F1AF0BA9570
:102C3000C9F714C0B13091F00E94E414B1E00895D6
:102C40000C94E414672F782F8827B85F39F0B93FC8
:102C5000CCF3869577956795B395D9F73EF4909523
:102C60008095709561957F4F8F4F9F4F08950E947B
:102C7000091408F48FEF08950E940914880B990B2A
:102C8000089597FB072E16F4009407D077FD09D01E
:102C90000E94771607FC05D03EF4909581959F4FD2
:102CA0000895709561957F4F0895A1E21A2EAA1B91
:102CB000BB1BFD010DC0AA1FBB1FEE1FFF1FA217EC
:102CC000B307E407F50720F0A21BB30BE40BF50BE9
:102CD000661F771F881F991F1A9469F76095709572
:102CE000809590959B01AC01BD01CF010895AA1B71
:102CF000BB1B51E107C0AA1FBB1FA617B70710F0E7
:102D0000A61BB70B881F991F5A95A9F78095909518
:102D1000BC01CD010895EE0FFF1F0590F491E02D49
:102D200009940F931F93CF93DF938230910510F492
:102D300082E090E0E0916605F091670530E020E0E8
:102D4000B0E0A0E0309799F42115310509F44AC0AC
:102D5000281B390B24303105D8F58A819B816115F8
:102D6000710589F1FB0193838283FE0111C04081CB
:102D700051810281138148175907E0F0481759071C
:102D800099F4109761F012960C93129713961C9376
:102D90003296CF01DF91CF911F910F91089500934B
:102DA000660510936705F4CF2115310551F04217E0
:102DB000530738F0A901DB019A01BD01DF01F801D9
:102DC000C1CFEF01F9CF9093670580936605CDCF12
:102DD000FE01E20FF31F8193919322503109398351
:102DE0002883D7CF2091640530916505232B41F4CA
:102DF00020919401309195013093650520936405ED
:102E000020919201309193012115310541F42DB7A4
:102E10003EB74091960150919701241B350BE091EC
:102E20006405F0916505E217F307A0F42E1B3F0B34
:102E30002817390778F0AC014E5F5F4F241735072C
:102E400048F04E0F5F1F50936505409364058193D2
:102E500091939FCFF0E0E0E09CCFCF93DF9300977A
:102E6000E9F0FC01329713821282A0916605B091BD
:102E70006705ED0130E020E01097A1F42081318159
:102E8000820F931F2091640530916505281739073B
:102E900009F061C0F0936505E0936405DF91CF917F
:102EA0000895EA01CE17DF07E8F54A815B819E01AC
:102EB00041155105B1F7E901FB83EA834991599125
:102EC000C40FD51FEC17FD0761F480819181029634
:102ED000840F951FE90199838883828193819B8365
:102EE0008A83F0E0E0E012968D919C911397009711
:102EF000B9F52D913C911197CD010296820F931F48
:102F000020916405309165052817390739F6309707
:102F100051F51092670510926605B0936505A09370
:102F20006405BCCFD383C28340815181840F951F38
:102F3000C817D90761F44E5F5F4F88819981480FA8
:102F4000591F518340838A819B81938382832115FA
:102F5000310509F0B0CFF0936705E09366059ECF89
:102F6000FD01DC01C0CF13821282D7CFB0E0A0E018
:102F7000ECEBF7E10C94ED148C01009751F4CB01CC
:102F80000E9491168C01C801CDB7DEB7E0E10C9428
:102F90000915FC01E60FF71F9C0122503109E217C9
:102FA000F30708F49DC0D901CD91DC911197C617A4
:102FB000D70798F0C530D10530F3CE0104978617B6
:102FC000970708F3C61BD70B2297C193D1936D9334
:102FD0007C93CF010E942D17D6CF5B01AC1ABD0A9E
:102FE0004C018C0E9D1EA0916605B0916705512C79
:102FF000412CF12CE12C109731F5809164059091D2
:1030000065058815990509F05CC04616570608F055
:1030100058C08091920190919301009741F48DB72F
:103020009EB74091960150919701841B950BE8172C
:10303000F90708F055C0F0936505E0936405F901C0
:1030400071836083A0CF8D919C91119712966C90A3
:10305000129713967C901397A815B90559F56C0132
:1030600042E0C40ED11CCA14DB0420F1AC014A19A1
:103070005B09DA011296159780F0628273825183A0
:103080004083D9016D937C93E114F10471F0D70171
:103090001396FC93EE93129776CF22968C0F9D1F7A
:1030A000F90191838083F301EFCFF0936705E093FB
:1030B000660569CF4816590608F42C017D01D30135
:1030C0009ACFCB010E9491167C01009749F0AE0186
:1030D000B8010E947318C8010E942D17870153CFB1
:1030E00010E000E050CFFB01DC0102C001900D9226
:1030F00041505040D8F70895FB01DC018D910190BB
:1031000080190110D9F3990B0895FB01DC0101909E
:103110000D920020E1F7089510E0C2E6D0E004C06F
:10312000FE010E948B162196C336D107C9F7F89489
:02313000FFCFCF
:1031320010070808080808070F101F101F00041FB7
:10314200040A1F000A0E0A0E0E110E041F00101FA1
:1031520000010D111D111D010001090915150100C4
:103162000F101E101F001F0000021E17161E020065
:103172000000040A11001F00000A0A0000110E00DC
:103182000000040A0A11150E04040A0A0A15150E93
:10319200000A0A00000A1500000A1F1F08020A009E
:1031A200000A1F1F02080A0000150E1B0E15000060
:1031B2000000150E1B0E1500000000000000001597
:1031C2000B0000006805800000004000140054005D
:1031D200000000006103B802EE02AE031F03FD020D
:1031E2001103000000008B045E04A205340457049E
:1031F2004404350400000000D506B802A205A1056A
:103202003A00202020202020202020202020005BA7
:103212006D696E692D455D0057656C636F6D652044
:10322200746F2074686520736D61727420636974B1
:103232007921005B6C6F6164696E675D2000496E85
:1032420069742053637265656E0020202056332E08
:103252003000496E6974204750494F00496E6974C5
:103262002044485431312F32320052656164204487
:103272004854313120646174610073746172742046
:103282006D61696E006E616E00696E66006F7666D2
:10329200000D0A004368616E6365206F6620736EDD
:1032A2006F772E2053656520737461747573206285
:1032B20061722E004368616E6365206F66207261E1
:1032C200696E2E2053656520737461747573206274
:1032D20061722E004368696C6C7920746F64617945
:1032E2002E2042756E646C6520757021203A28008C
:1032F200486967682074656D70657261747572657E
:103302002E20426577617265206F66206865617460
:103312007374726F6B652E005468652077656174F3
:1033220068657220697320706C656173616E742EBA
:103332002057656C636F6D6520746F20746865201B
:10334200536D61727420436974792E00202D2D25EE
:103352000025202020004D6F64756C652044485480
:1033620031312F3232204572726F7200444854312B
:10337200310053523034204572726F722E00535214
:1033820030340073797374656D206572726F7221C7
:10339200205468652073797374656D2077696C6C4D
:1033A200207265737461727420696E2034352073E3
:1033B20065636F6E64732E0073797374656D005B61
:0C33C200455D0072657374617274000058
:00000001FF
